:020000040000fa
:080000000002040000000000f2
:020000040000fa
:040008008e04000062
:020000040000fa
:04000c008e0400005e
:020000040000fa
:040010008e0400005a
:020000040000fa
:040014008e04000056
:020000040000fa
:040018008e04000052
:020000040000fa
:04001c008e0400004e
:020000040000fa
:040020008e0400004a
:020000040000fa
:040024008e04000046
:020000040000fa
:040028008e04000042
:020000040000fa
:04002c008e0400003e
:020000040000fa
:040030008e0400003a
:020000040000fa
:040034008e04000036
:020000040000fa
:040038008e04000032
:020000040000fa
:04003c008e0400002e
:020000040000fa
:040040008e0400002a
:020000040000fa
:040044008e04000026
:020000040000fa
:040048008e04000022
:020000040000fa
:04004c008e0400001e
:020000040000fa
:040050008e0400001a
:020000040000fa
:04005400c8020000de
:020000040000fa
:040058008e04000012
:020000040000fa
:04005c008e0400000e
:020000040000fa
:040060008e0400000a
:020000040000fa
:040064008e04000006
:020000040000fa
:040068008e04000002
:020000040000fa
:04006c00ec020000a2
:020000040000fa
:040070008e040000fa
:020000040000fa
:040074008e040000f6
:020000040000fa
:040078008e040000f2
:020000040000fa
:04007c008e040000ee
:020000040000fa
:040080008e040000ea
:020000040000fa
:040084008e040000e6
:020000040000fa
:040088008e040000e2
:020000040000fa
:04008c008e040000de
:020000040000fa
:040090008e040000da
:020000040000fa
:040094008e040000d6
:020000040000fa
:040098008e040000d2
:020000040000fa
:04009c008e040000ce
:020000040000fa
:0400a0008e040000ca
:020000040000fa
:0400a4008e040000c6
:020000040000fa
:0400a8008e040000c2
:020000040000fa
:0400ac008e040000be
:020000040000fa
:0400b0008e040000ba
:020000040000fa
:0400b4008e040000b6
:020000040000fa
:0400b8008e040000b2
:020000040000fa
:0400bc008e040000ae
:020000040000fa
:0400c0008e040000aa
:020000040000fa
:0400c4008e040000a6
:020000040000fa
:0400c8008e040000a2
:020000040000fa
:0400cc008e0400009e
:020000040000fa
:0400d0008e0400009a
:020000040000fa
:0400d4008e04000096
:020000040000fa
:0400d8008e04000092
:020000040000fa
:0400dc008e0400008e
:020000040000fa
:0400e0008e0400008a
:020000040000fa
:0400e4008e04000086
:020000040000fa
:0400e8008e04000082
:020000040000fa
:0400ec008e0400007e
:020000040000fa
:0400f0008e0400007a
:020000040000fa
:0400f4008e04000076
:020000040000fa
:0400f8008e04000072
:020000040000fa
:0400fc008e0400006e
:020000040000fa
:040100008e04000069
:020000040000fa
:040104008e04000065
:020000040000fa
:040108008e04000061
:020000040000fa
:04010c008e0400005d
:020000040000fa
:040110008e04000059
:020000040000fa
:040114008e04000055
:020000040000fa
:040118008e04000051
:020000040000fa
:04011c008e0400004d
:020000040000fa
:040120008e04000049
:020000040000fa
:040124008e04000045
:020000040000fa
:040128008e04000041
:020000040000fa
:04012c008e0400003d
:020000040000fa
:040130008e04000039
:020000040000fa
:040134008e04000035
:020000040000fa
:040138008e04000031
:020000040000fa
:04013c008e0400002d
:020000040000fa
:040140008e04000029
:020000040000fa
:040144008e04000025
:020000040000fa
:040148008e04000021
:020000040000fa
:04014c008e0400001d
:020000040000fa
:040150008e04000019
:020000040000fa
:040154008e04000015
:020000040000fa
:040158008e04000011
:020000040000fa
:04015c008e0400000d
:020000040000fa
:040208008e04000060
:020000040000fa
:04020c008e0400005c
:020000040000fa
:040210008e04000058
:020000040000fa
:040214008e04000054
:020000040000fa
:040218008e04000050
:020000040000fa
:04021c008e0400004c
:020000040000fa
:040220008e04000048
:020000040000fa
:040224008e04000044
:020000040000fa
:040228008e04000040
:020000040000fa
:04022c008e0400003c
:020000040000fa
:040230008e04000038
:020000040000fa
:040234008e04000034
:020000040000fa
:040238008e04000030
:020000040000fa
:04023c008e0400002c
:020000040000fa
:040240008e04000028
:020000040000fa
:040244008e04000024
:020000040000fa
:040248008e04000020
:020000040000fa
:04024c008e0400001c
:020000040000fa
:040250008e04000018
:020000040000fa
:04025400c8020000dc
:020000040000fa
:040258008e04000010
:020000040000fa
:04025c008e0400000c
:020000040000fa
:040260008e04000008
:020000040000fa
:040264008e04000004
:020000040000fa
:040268008e04000000
:020000040000fa
:04026c00ec020000a0
:020000040000fa
:040270008e040000f8
:020000040000fa
:040274008e040000f4
:020000040000fa
:040278008e040000f0
:020000040000fa
:04027c008e040000ec
:020000040000fa
:040280008e040000e8
:020000040000fa
:040284008e040000e4
:020000040000fa
:040288008e040000e0
:020000040000fa
:04028c008e040000dc
:020000040000fa
:040290008e040000d8
:020000040000fa
:040294008e040000d4
:020000040000fa
:040298008e040000d0
:020000040000fa
:04029c008e040000cc
:020000040000fa
:0402a0008e040000c8
:020000040000fa
:0402a4008e040000c4
:020000040000fa
:0402a8008e040000c0
:020000040000fa
:0402ac008e040000bc
:020000040000fa
:0402b0008e040000b8
:020000040000fa
:0402b4008e040000b4
:020000040000fa
:0402b8008e040000b0
:020000040000fa
:0402bc008e040000ac
:020000040000fa
:0402c0008e040000a8
:020000040000fa
:0402c4008e040000a4
:020000040000fa
:0402c8008e040000a0
:020000040000fa
:0402cc008e0400009c
:020000040000fa
:0402d0008e04000098
:020000040000fa
:0402d4008e04000094
:020000040000fa
:0402d8008e04000090
:020000040000fa
:0402dc008e0400008c
:020000040000fa
:0402e0008e04000088
:020000040000fa
:0402e4008e04000084
:020000040000fa
:0402e8008e04000080
:020000040000fa
:0402ec008e0400007c
:020000040000fa
:0402f0008e04000078
:020000040000fa
:0402f4008e04000074
:020000040000fa
:0402f8008e04000070
:020000040000fa
:0402fc008e0400006c
:020000040000fa
:040300008e04000067
:020000040000fa
:040304008e04000063
:020000040000fa
:040308008e0400005f
:020000040000fa
:04030c008e0400005b
:020000040000fa
:040310008e04000057
:020000040000fa
:040314008e04000053
:020000040000fa
:040318008e0400004f
:020000040000fa
:04031c008e0400004b
:020000040000fa
:040320008e04000047
:020000040000fa
:040324008e04000043
:020000040000fa
:040328008e0400003f
:020000040000fa
:04032c008e0400003b
:020000040000fa
:040330008e04000037
:020000040000fa
:040334008e04000033
:020000040000fa
:040338008e0400002f
:020000040000fa
:04033c008e0400002b
:020000040000fa
:040340008e04000027
:020000040000fa
:040344008e04000023
:020000040000fa
:040348008e0400001f
:020000040000fa
:04034c008e0400001b
:020000040000fa
:040350008e04000017
:020000040000fa
:040354008e04000013
:020000040000fa
:040358008e0400000f
:020000040000fa
:04035c008e0400000b
:020000040000fa
:100400008f9920000edf20000e0188000000000000
:10041000000020000000e000020032000001200087
:1004200020028800140007003e0107000000e000e1
:1004300003003a00803a2200010020000200370049
:100440000000200001002000810f70000100320038
:1004500014000700000020000000e000020032004d
:100460000000020000000000d42302000000000091
:100470000040da000000fe004440a9000006200011
:100480000000e0000300320000002000a00188000e
:100490004440a800000006008a1f78008b1f7800e7
:1004a0000000060091018800800478000000eb0045
:1004b0001a003700e284440032a0b4009905ba0063
:1004c000e284440032a0b4009906ba00e2844400f9
:1004d00032a0b4000006eb00476fde00fd07b2005b
:1004e000636ce10003003a00ebff07000000eb0043
:1004f0000a003700606ce10004003a00005deb0088
:100500008b05e900fdff3e00040037006168e10053
:10051000010032000086eb000b00070019c7ba008b
:100520001905ba000e04e00003003a000a00e000da
:10053000e0ff3a0000000600fe07b2009e018800be
:100540008a047800f5ff3700395dba008b05e900b1
:100550000c003200295dba008b05e900080032006a
:100560000c00e00003003a00e284440032a0b40032
:10057000f5ff370019ddba008b05e900faff3a00f4
:100580008904e800e184440032a0b40000000600c1
:10059000809fbe00829fbe003400f8000000200053
:1005a000a0018800e8c8bf00331180008080fb00f4
:1005b000828a200003f178000040e800f043b20096
:1005c000e8e8b7008560a9003400f9004f01be00db
:1005d0004f00be00004006003600f800809fbe00bd
:1005e000829fbe00849fbe00869fbe008620a90019
:1005f00008e2ab000700320008e2a9006c29ef0016
:10060000d04b8000200090000008eb007a29ef001a
:10061000bc003700604b80008000eb00eb0f500007
:10062000e08f5800b4003e00006001000b0037006e
:10063000290037004f0037006f003700ab0037004c
:100640008c00370096003700a8003700980037006c
:10065000a900370024003700350037006229ab00bd
:10066000a8003a00e195200011009000d04b8800ce
:1006700090417800c2972000034978001001900053
:10068000f24b88006600400090009800c196200060
:10069000810f500002003a0060962000004b880055
:1006a000e0952000a00090000100a100210098002a
:1006b00090009000908f500003003a00a00090003e
:1006c0000110a000210098000602a80020002000d0
:1006d000604b88008b0037000622a8002000200015
:1006e000604b8800870037000802e20004003d00ec
:1006f0006469ec0040002000cc0e07008100370048
:10070000104c80008000d1008180fb001110880017
:100710000008a30003003200b0002000604b8800f6
:100720007800370030002000604b880075003700eb
:100730000802e20004003d006469ec004000200073
:10074000ba0e07006f0037000622a800104c800088
:100750004800de0066006000100fb300104c8800f7
:1007600010c0b30080e9b70020002000604b880073
:100770006400370080c9bf00e14f5000090032001b
:10078000f04b800090017800134c8800a00090008e
:10079000214c8800a0419000129820000349780065
:1007a000010037008069ef00104c8000f10f20003d
:1007b000810f5000070036004800de006600600030
:1007c000000fb30010108800a0002000604b8800cc
:1007d0004c003700101088000008a300030032000e
:1007e00050002000604b8800460037003000200099
:1007f000604b8800430037000802e20005003d001e
:100800006469ec0009e2a90050002000870e07008f
:100810003c00370081c9bf008040e9008141780079
:1008200012982000034978000004e0000c003a0010
:10083000600020007e29b4007c49ed007ce9b7000f
:1008400003003a0020002000780e07002d0037003a
:100850000622a80020002000604b880029003700f5
:10086000204c8000b080fb0011108800204c8800d4
:10087000240037000802e20005003d006469ec0036
:1008800040002000690e070009e2a9001d003700a2
:100890000662a80080002000604b88001900370025
:1008a00080002000604b88000662a8001500370019
:1008b00001108000204c800001587800204c8800f6
:1008c0008149ed0081e9b7000400320006a2a900c9
:1008d00060002000604b88000200370006a2a800dc
:1008e000470e07000682a8000600370020002000ff
:1008f0004e0e0700030037006469ec006000200022
:100900004a0e07004f03be004f02be004f01be005b
:100910004f00be003600f900004006000040da003b
:080920000000fe0000000500cc
:020000040000fa
:10092800414200004344000045460000474800009b
:10093800494a00004b4c00004d4e00004f5000004b
:1009480051520000535400005556000057580000fb
:10095800595a000061620000636400006566000087
:1009680067680000696a00006b6c00006d6e00002b
:100978006f700000717200007374000075760000db
:1009880077780000797a00003031000032330000b7
:100998003435000036370000383900002b2f0000ae
:1009a800400000000d040000400000000d0600009b
:1009b800400000002a15000040000000257f0000cc
:1009c80040000000247f000040000000237f00005a
:1009d800400000001208000044040000000100006c
:020000040000fa
:1009e8000040eb00850d070000000600fcff070033
:1009f80081cdb300014068000080fb000000e900e1
:100a08004f00de0000000600420020008000eb00de
:100a180040c4b300ec0d07000000060043002000ae
:100a28000001eb008040780040c4b300cf0d070000
:100a380000000600420020008000eb0020c4b30044
:100a4800e10d070000000600430020000001eb0054
:100a58008040780020c4b300c40d070000000600e1
:100a6800420020008000eb0000c4b300d60d070050
:100a780000000600430020000001eb0080407800e1
:100a880000c4b300b90d07000000060022002000d2
:100a98004100200020c4b300cb0d07000000060071
:100aa80023002000420020008040780020c4b300ca
:100ab800ae0d0700000006003200200041002000b3
:100ac80000c4b300c00d070000000600330020007a
:100ad800420020008040780000c4b300a30d070046
:100ae80000000600320020008000eb0030c4b30094
:100af800b50d070000000600330020000001eb00e0
:100b08008040780030c4b300980d0700000006004c
:100b1800420020008000eb0010c4b300aa0d0700bb
:100b280000000600430020000001eb008040780030
:100b380010c4b3008d0d070000000600889fbe009a
:100b480061cbb300e0c7b3004b0d070010002000d5
:100b58008d060700f0c7b300280d0700100020001d
:100b68008906070011c1b300e0c7b300420d0700b2
:100b780010002000840607002800200049002000fb
:100b880002003700100020007f06070008017800e7
:100b98008900780030c0b3008b0d0700e14f50008a
:100ba800f8ff3a0051c1b300e0c7b300320d0700a7
:100bb80010002000740607002800200039c0b30088
:100bc80002003700100020006f06070008017800b7
:100bd80088007800094078007b0d0700e14f50003d
:100be800f8ff3a00c4ff0700c0c0b300cdff0700fc
:100bf80080c0b3009fff070080c0b30092ff0700ca
:100c080091c1b300e0c7b3001b0d0700c00320006b
:100c18005d06070001c4b30090c6b300160d0700b7
:100c280071c3b300e0c7b300130d0700a1c9b30037
:100c3800e0c7b300100d070001ccb300e0c7b30054
:100c48000d0d070001c9b300f0c7b3000a0d070076
:100c580023002000420020008340780050c0b300e9
:100c6800420d070001c8b300f0c7b300020d07002a
:100c780001c2b300b0c4b300ff0c070031c8b30011
:100c8800c0c4b300fc0c0700230020004200200071
:100c980083407800b0c6b300340d070011c0b3001c
:100ca800f0c4b300f40c0700b1c4b300e0c4b3004f
:100cb800f10c0700300020003306070041c0b300e4
:100cc800f0c4b300ec0c070011c5b300e0c4b300d6
:100cd800e90c0700e1c0b300f0c4b300e60c07005c
:100ce80021c5b300e0c4b300e30c070021c0b30082
:100cf800f0c4b300e00c0700c1c4b300e0c4b30003
:100d0800dd0c070021c4b300d0c4b300da0c07001f
:100d180061c0b30040c4b300d70c07001300200023
:100d2800720020008040eb00c0c4b3000f0d070024
:100d3800280020008004eb0002003700100020008b
:100d480011060700080178008900780030c0b30058
:100d58001d0d0700e14f5000f8ff3a0080c0eb007e
:100d680050c5b300c40c070001cfb30060c5b30081
:100d7800c10c07008040eb0070c5b300be0c070033
:100d88004f04be0000000600120020006100200091
:100d980070c7b3000c0d07000080fb000000ea00dc
:100da8004f00de0000000600130020006200200053
:100db8008040780070c7b300ec0c07000000060004
:100dc800889fbe00e10f500006003200e10f40008e
:100dd8000600320001c3b3000000e0000400320046
:100de8001300370001c1b3000100370001c2b3008e
:100df80090c6b300a00c070031c0b300e0c7b30031
:100e08009d0c070018002000390020000200370060
:100e180008007800dc0507000801780089007800e0
:100e2800b0c1b300e80c07000004e000f8ff32008e
:100e38004f04be0000000600889fbe00e10f50006e
:100e480006003200e10f400006003200c1c0b300c6
:100e58000000e000040032001300370041c0b30076
:100e68000100370081c0b30090c6b300820c0700b0
:100e780031c0b300e0c7b3007f0c070018002000a2
:100e8800390020000200370008007800be0507007e
:100e98000801780089007800b0c1b300ca0c0700c7
:100ea8000004e000f8ff32004f04be000000060016
:100eb800889fbe00e10f500006003200e10f40009d
:100ec8000600320031c0b3000000e0000400320028
:100ed8001300370011c0b3000100370021c0b30070
:100ee80090c6b300640c070031c0b300e0c7b3007c
:100ef800610c0700180020003900200002003700ac
:100f080008007800a005070008017800890078002b
:100f1800b0c1b300ac0c07000004e000f8ff3200d9
:100f28004f04be000000060010c7b300330c0700d2
:100f38000000060020c7b300300c070000000600c0
:100f480030c7b3002d0c0700000006001200200077
:100f58007100200070c7b3009b0c07000080fb00e5
:100f68000000ea004f00de00000006001300200029
:100f7800720020008040780070c7b3007b0c070027
:100f880000000600889fbe0001c4b30090c6b300ed
:100f9800390c070031c0b300e0c7b300360c0700b6
:100fa80018002000390020000200370008007800ef
:100fb800750507000801780089007800b0c1b30002
:100fc800810c07000004e000f8ff32004f04be0067
:100fd80000000600881f780040c7b300070c070010
:100fe8000084fb00220020008000eb0070c7b300e3
:100ff800750c07004800dd00000074000098a3008d
:101008000200320001c02f00008070004f047800f9
:1010180000000600881f780050c7b300f70b0700d0
:101028000084fb00220020008200780070c7b30013
:10103800650c07004800dd00000074000098a3005c
:101048000200320001c02f00008070004f047800b9
:1010580000000600881f780060c7b300e70b070090
:101068000084fb00220020004100200070c7b3006c
:10107800550c07004800dd00000074000098a3002c
:101088000200320001c02f00008070004f04780079
:1010980000000600b0c5b300d80b0700000006002a
:1010a80080407800b0c5b300f30b070000000600cd
:1010b800a0c5b300d10b07000000060080407800ef
:1010c800a0c5b300ec0b070000000600e0c5b300a4
:1010d800ca0b07000000060080407800e0c5b30096
:1010e800e50b070000000600d0c5b300c30b0700de
:1010f8000000060080407800d0c5b300de0b070072
:1011080000000600881f7800a0c7b300bb0b0700cb
:1011180000447800b0c7b300b80b070080407800df
:10112800f54f540004003a000040eb00e3cf5000b4
:1011380012003a000f003700d0c2b300804f5400ad
:1011480005003a0010c0b3000104e00009003200b5
:1011580030c0b3000700370030c0b300fd4f540063
:1011680004003a0020c0b300e7cf5000010032006d
:1011780030c0b3004f0478000000060030c0b30050
:10118800fcff3700881f7800e10f5000080032008c
:1011980038c0b30051c1b3000700390078c0b300ac
:1011a800d1c1b300e20f50000a003a000200370034
:1011b8000044eb00d1c2b300a0c7b300ae0b0700d8
:1011c800330020000001eb0088407800b0c7b3006e
:1011d800e60b07004f04780000000600120020000c
:1011e80031002000b0c7b300f70b07000080fb00f8
:1011f8000000ea004f00de00000006001300200097
:101208003200200080407800b0c7b300d70b070039
:10121800000006000200fa0080c7b300e0ff9f004c
:1012280022c0b30011c0b3000f80e900a60b07006d
:101238007ff897004800dd006ff997008280fb0077
:10124800008070000080fa000000060021cbb30087
:10125800e0c7b300880b07000000060000c6b30013
:10126800660b0700000006008040780000c6b30047
:10127800810b070000000600220020008000eb0020
:10128800f0c5b300d00b07000040e80000000600de
:101298008040e900230020000001eb00f0c5b30006
:1012a800b20b07000000060010c6b300530b07007e
:1012b800000006008040780010c6b3006e0b0700df
:1012c800000006006200200021002000f0c5b300e5
:1012d800bd0b07000000060063002000220020006c
:1012e80080407800f0c5b300a00b0700000006009e
:1012f800520020008000eb0040c6b300b20b07008c
:1013080000000600530020000001eb008040780038
:1013180040c6b300950b070000000600120020002d
:101328006100200030c6b300a70b07000080fb0057
:101338000000ea004f00de00000006001300200055
:10134800620020008040780030c6b300870b070099
:1013580000000600120020007100200030c6b30013
:10136800990b07000080fb000000ea004f00de0038
:101378000000060013002000720020008040780062
:1013880030c6b300790b07000000060032002000c9
:101398008000eb0030c6b3008b0b0700000006008e
:1013a800330020000001eb008040780030c6b30015
:1013b8006e0b07000000060012002000310020001c
:1013c80010c5b300800b07000080fb000000ea0096
:1013d8004f00de000000060013002000320020004d
:1013e8008040780010c5b300600b070000000600bd
:1013f800320020008000eb0010c5b300720b07001c
:101408000080fb000000ea004f00de00000006003c
:101418008040eb000004e0000100320071c0b3001e
:10142800330020000001eb0010c5b3004f0b07008c
:1014380000000600120020003100200020c5b30083
:10144800610b07000080fb000000ea004f00de008f
:1014580000000600130020003200200080407800c1
:1014680020c5b300410b0700000006003200200031
:101478008000eb0000c5b300530b07000080fb00a1
:101488000000ea004f00de00000006008040eb008c
:101498000004e0000100320071c0b30033002000f6
:1014a8000001eb0000c5b300300b07000000060088
:1014b800320020008000eb0020c5b300420b07007b
:1014c8000080fb000000ea004f00de00000006007c
:1014d8008040eb000004e00006003200130020000a
:1014e8000001eb008340780020c6b3001f0b070003
:1014f80071c0b300330020000001eb0020c5b30029
:101508001a0b0700000006001200200051002000fe
:1015180000c5b3002c0b07000080fb000000ea00a8
:101528004f00de00000006001300200052002000db
:101538008040780000c5b3000c0b070000000600cf
:10154800120020004100200000c5b3001e0b070058
:101558000080fb000000ea004f00de0000000600eb
:1015680013002000420020008040780000c5b3002e
:10157800fe0a0700000006001200200051002000ab
:1015880010c5b300100b07000080fb000000ea0044
:101598004f00de000000060013002000520020006b
:1015a8008040780010c5b300f00a0700000006006c
:1015b800120020004100200010c5b300020b0700f4
:1015c8000080fb000000ea004f00de00000006007b
:1015d80013002000420020008040780010c5b300ae
:1015e800e20a070000000600120020006100200047
:1015f80070c4b300f40a07000080fb000000ea0092
:101608004f00de00000006001300200062002000ea
:101618008040780070c4b300d40a070000000600b8
:10162800120020007100200070c4b300e60a070011
:101638000080fb000000ea004f00de00000006000a
:1016480013002000720020008040780070c4b300ae
:10165800c60a0700000006000200fa0020c2b30014
:10166800e0ff9f0022c0b30011c0b3000f80e90063
:10167800950a07007ff897004800dd006ff997008a
:101688008280fb00008070000080fa0000000600e5
:1016980001cbb300e0c7b300770a070000000600db
:1016a80011cbb300e0c7b300730a070000000600bf
:1016b800120020004100200070c4b300c20a0700d5
:1016c8000080fb000000ea004f00de00000006007a
:1016d80013002000420020008040780070c4b3004e
:1016e800a20a0700000006000100e0000500320021
:1016f80042c2b300024878000141780011c0b3002b
:10170800710a070000000600c0c1b3003b0a0700c9
:1017180000000600d0c1b300380a07000000060028
:10172800e0c1b300350a070000000600f0c1b300ad
:10173800320a0700000006001200200031002000d5
:10174800d0c1b300a00a07000080fb000000ea0037
:101758004f00de00000006001200200051002000ab
:10176800c0c1b300980a07000080fb000000ea002f
:101778004f00de000000060012002000410020009b
:10178800c0c1b300900a07000080fb000000ea0017
:101798004f00de000000060012002000210020009b
:1017a800d0c1b300880a07000080fb000000ea00ef
:1017b8004f00de0000000600f0c1b3000f0a07006a
:1017c80069006000690068000000e9004f00de0061
:1017d80000000600f0c1b300080a070069006000b5
:1017e8000000a2000000e9004f00de000000060033
:1017f800f0c1b300010a07006a0060006a006800cf
:101808000000e9004f00de0000000600f0c1b30050
:10181800fa0907006a0060000010a2000000e90051
:101828004f00de0000000600f0c1b300f309070016
:101838006c0060006c0068000000e9004f00de00ea
:1018480000000600f0c1b300ec0907006c0060005e
:101858000020a2000000e9004f00de0000000600a2
:10186800120020008000eb00c0c1b300560a070038
:101878000080fb000000ea004f00de0000000600c8
:101888001200200021002000c0c1b3004e0a07004a
:101898000080fb000000ea004f00de0000000600a8
:1018a800e0c1b300d509070069006000690068005d
:1018b8000000e9004f00de0000000600e0c1b300b0
:1018c800ce090700690060000000a2000000e900de
:1018d8004f00de0000000600e0c1b300c7090700a2
:1018e8006a0060006a0068000000e9004f00de003e
:1018f80000000600e0c1b300c00907006a006000ec
:101908000010a2000000e9004f00de000000060001
:10191800e0c1b300b90907006c0060006c00680002
:101928000000e9004f00de0000000600e0c1b3003f
:10193800b20907006c0060000020a2000000e90066
:101948004f00de0000000600e0c1b300ab0907004d
:10195800804078000000eb000104e00002003d0038
:101968004408de006100600000000600e0c1b3002a
:10197800a2090700804078000000eb000104e000a5
:10198800020035004408de00610060000000060027
:10199800e0c1b30099090700804078000000eb001f
:1019a8000104e00002003d004508de00610060001f
:1019b80000000600e0c1b3009009070080407800ed
:1019c8000000eb000104e000020035004508de00dd
:1019d8006100600000000600e0c1b300870907004d
:1019e800804078000000eb000104e00002003d00a8
:1019f8004608de006100600000000600e0c1b30098
:101a08007e090700804078000000eb000104e00038
:101a1800020035004608de00610060000000060094
:101a28001200200071002000d0c1b300e6090700b1
:101a38000080fb000000ea004f00de000000060006
:101a48001200200051002000d0c1b300de090700b9
:101a58000080fb000000ea004f00de0000000600e6
:101a68001200200041002000d0c1b300d6090700b1
:101a78000080fb000000ea004f00de0000000600c6
:101a8800120020008200780030c5b300ce0907009c
:101a98000080fb000000e9004f00de0000000600a7
:101aa800804078000104a2001300200003017800a0
:101ab80030c5b300ad090700000006001200200081
:101ac8002100200030c5b300bf0907000080fb00db
:101ad8000000ea004f00de000000060013002000ae
:101ae800220020008040780030c5b3009f0907001d
:101af80000000600420020008000eb0040c5b30053
:101b0800b109070000000600430020000001eb00b7
:101b18008040780040c5b300940907000000060023
:101b2800120020003100200030c5b300a6090700cc
:101b38000080fb000000ea004f00de000000060005
:101b480013002000320020008040780030c5b30028
:101b580086090700000006000c00fa00889fbe00f6
:101b68008a9fbe008c9fbe00800578000106780021
:101b7800820678000304780084047800050578005c
:101b8800c2c0b30082ef9f0011c0b3007880570035
:101b98004d0907009fe89700c808dd000fe9970086
:101ba8000280fb00008c7000bfe89700c808dd00c9
:101bb8002fe897000080fb00808c7000dfe897001a
:101bc800c808dd004fe897000080fb00008d70001a
:101bd800ffe89700c808dd006fe897000080fb0069
:101be800808d70009ff09700c808dd000ff0970007
:101bf8000080fb00008e7000bff09700c808dd0071
:101c08002ff097000080fb00808e70004f06be000a
:101c18004f05be004f04be000080fa000000060019
:101c2800f8874700889fbe008a9fbe008c9fbe0031
:101c38008e1f7800800678000107780082bf9f0019
:101c48000305780084057800050678000604be00c0
:101c580040c0b300c0df9f0042c1b30011c0b30051
:101c6800c0fd2f000f00400017090700dfd89700bc
:101c7800c808dd004fd997000280fb00008c700077
:101c8800ffd89700c808dd006fd897000080fb00d8
:101c9800808c70001fe197004811dd008fe09700ed
:101ca8008180fb002fa89700010871003fe1970091
:101cb8004811dd00afe097008180fb001fa8970066
:101cc80001087100dfe09700c808dd004fe09700c9
:101cd8000080fb00008d7000ffe09700c808dd0061
:101ce8006fe097000080fb00808d70009fe89700f0
:101cf800c808dd000fe897000080fb00008e700028
:101d0800bfe89700c808dd002fe897000080fb00b7
:101d1800808e7000dfe89700c808dd004fe8970064
:101d28000080fb00008f7000ffe89700c808dd0006
:101d38006fe897000080fb000fb9970000897000da
:101d48004f0778004f06be004f05be004f04be0087
:101d58008f01b100000006000c00fa00881f78000f
:101d680000047800c2c0b300a2f79f0011c0b300fe
:101d78006e805700d40807003ff097004800dd0048
:101d88002ff197008280fb0000807000604498006b
:101d98004800de0070449800dff09700c808dd00b6
:101da8004ff097000080fb0001007000004c980085
:101db8004800de00104c9800fff09700c808dd00ce
:101dc8006ff097000080fb0001007000204c980025
:101dd8004800de00304c98009ff89700c808dd00e6
:101de8000ff897000080fb0001007000f10f200041
:101df800014c60004800de0010449800bff89700ce
:101e0800c808dd002ff897000080fb000100700073
:101e1800204498004800de0030449800dff897001e
:101e2800c808dd004ff897000080fb000100700033
:101e3800404498004800de00504498004f04780061
:101e48000080fa00000006001400fa00881f7800dd
:101e58000004780040c0b300a0ef9f0042c1b30067
:101e680011c0b30076805700970807003fe8970035
:101e78004800dd002fe997008280fb000080700099
:101e8800404c98004800de00504c9800dfe897006e
:101e9800c808dd004fe897000080fb0001007000d3
:101ea800604c98004800de00704c9800ffe89700ee
:101eb800c808dd006fe897000080fb000100700093
:101ec800005498004800de00105498009ff09700d6
:101ed800c808dd000ff097000080fb0001007000cb
:101ee800205498004800de0030549800bff0970056
:101ef800c808dd002ff097000080fb00010070008b
:101f0800604498004800de0070449800dff09700b5
:101f1800c808dd004ff097000080fb00010070004a
:101f2800004c98004800de00104c9800fff0970025
:101f3800c808dd006ff097000080fb00010070000a
:101f4800204c98004800de00304c98009ff897001d
:101f5800c808dd000ff897000080fb000100700042
:101f6800f10f2000014c60004800de00104498008a
:101f7800bff89700c808dd002ff897000080fb0025
:101f880001007000204498004800de0030449800aa
:101f9800dff89700c808dd004ff897000080fb00c5
:101fa80001007000404498004800de00504498004a
:101fb8004f0478000080fa00000006000600fa00ce
:101fc800889fbe008a1f78000004be0002057800c2
:101fd80020c1b300c0f79f0062c0b30011c0b300b6
:101fe8006c80570038080700dff09700c808dd004c
:101ff8004ff197000280fb00008c7000fff0970003
:10200800c808dd006ff097000080fb00808c70002e
:102018009ff89700c808dd000ff897000080fb00c4
:10202800008d70004f0578004f04be000080fa0054
:10203800000006000200fa0020c1b300e0ff9f0084
:1020480022c0b30011c0b3000f80e9001e080700ca
:102058007ff897004800dd006ff997008280fb0049
:10206800008070000080fa000000060080407800c0
:1020780010c7b30000080700eeff070000000600c5
:102088000200fa0040c1b300e0ff9f0022c0b30085
:1020980011c0b3000f80e9000b0807007ff8970014
:1020a8004800dd006ff997008280fb000080700017
:1020b8000080fa00000006008040780020c7b300c6
:1020c800ed070700eeff0700000006000200fa0017
:1020d80060c1b300e0ff9f0022c0b30011c0b3008d
:1020e8000f80e900f80707007ff897004800dd0037
:1020f8006ff997008280fb00008070000080fa0072
:10210800000006008040780030c7b300da070700f7
:10211800eeff0700000006000200fa0000c2b3004c
:10212800e0ff9f0022c0b30011c0b3000f80e90098
:10213800e50707007ff897004800dd006ff9970072
:102148008280fb00008070000080fa00000006001a
:102158000600fa00889fbe008a1f78000004be00af
:1021680002057800c0c0b300c0f79f0062c0b3008a
:1021780011c0b3006c805700d3070700dff0970049
:10218800c808dd004ff197000280fb00008c70004a
:10219800fff09700c808dd006ff097000080fb0093
:1021a800808c70009ff89700c808dd000ff8970032
:1021b8000080fb00008d70004f0578004f04be00c2
:1021c8000080fa00000006000200fa00c0c0b30058
:1021d800e0ff9f0022c0b30011c0b3000f80e900e8
:1021e800b90707007ff897004800dd006ff99700ee
:1021f8008280fb00008070000080fa00000006006a
:10220800881f7800000478008840780040c7b30031
:1022180099070700c8c0de00230020000001eb007a
:1022280070c7b300d1070700e7ff07004f04780025
:10223800000006000200fa00e0c0b300e0ff9f00c3
:1022480022c0b30011c0b3000f80e9009e07070049
:102258007ff897004800dd006ff997008280fb0047
:10226800008070000080fa0000000600881f7800d7
:10227800000478008840780050c7b3007e07070044
:10228800c8c0de00230020000301780070c7b30037
:10229800b6070700e7ff07004f04780000000600b4
:1022a8000200fa0000c1b300e0ff9f0022c0b300a3
:1022b80011c0b3000f80e900830707007ff897007b
:1022c8004800dd006ff997008280fb0000807000f5
:1022d8000080fa0000000600881f780000047800db
:1022e8008840780060c7b30063070700c8c0de00f5
:1022f800230020004200200070c7b3009b0707009e
:10230800e7ff07004f047800000006000600fa0007
:10231800889fbe008a1f78000004be00020578006e
:1023280040c0b300c0f79f0062c0b30011c0b30043
:102338006c80570064070700dff09700c808dd00cd
:102348004ff197000280fb00008c7000fff09700af
:10235800c808dd006ff097000080fb00808c7000db
:102368009ff89700c808dd000ff897000080fb0071
:10237800008d70004f0578004f04be000080fa0001
:10238800000006000200fa0040c0b300e0ff9f0012
:1023980022c0b30011c0b3000f80e9004a0707004c
:1023a8007ff897004800dd006ff997008280fb00f6
:1023b800008070000080fa00000006000200fa00a9
:1023c80060c0b300e0ff9f0022c0b30011c0b3009b
:1023d8000f80e9003c0707007ff897004800dd0000
:1023e8006ff997008280fb00008070000080fa007f
:1023f800000006000200fa0080c0b300e0ff9f0062
:1024080022c0b30011c0b3000f80e9002e070700f7
:102418007ff897004800dd006ff997008280fb0085
:10242800008070000080fa0000000600f306070034
:10243800000006001007070000000600889fbe0085
:10244800130020000301780083407800a0c6b30081
:102458004607070001cab300e0c7b3000607070034
:1024680018002000490020000200370090012000d9
:10247800450007000801780089007800b0c1b30062
:10248800510707000004e000f8ff32004f04be00c7
:102498000000060021c1b300e0c7b300f60607003c
:1024a80000000600889fbe000000e0000600320021
:1024b800e10f500006003200d1c3b300e20f500014
:1024c80014003a0003003700f1c2b30001003700de
:1024d800b1c3b30090c6b300e706070031c0b3002c
:1024e800e0c7b300e4060700180020003900200008
:1024f8000200370008007800230007000801780070
:1025080089007800b0c1b3002f0707000004e0007d
:10251800f8ff32004f04be0000000600881f780054
:102528000004780010c0b3001ffa0700484090006c
:10253800cefe070058409000dffe0700684090007c
:10254800f0fe0700580090002dff0700680090007b
:1025580046ff0700780090005fff07004f047800ef
:10256800000006000000e000060032008000eb00da
:1025780000000000000000008100e800810f50000a
:10258800fbff3e00000006008001eb000000e000b9
:1025980009003a000c003700000000008100e80044
:1025a800828f5000fcff3a008301e800830f50003f
:1025b80003003e00040037000002eb00027d20000b
:1025c80084007800f4ff3700000006006f406000c8
:1025d800e94f5000020036007043b0000100370098
:1025e8000043b000000006008040eb00f2c2b300d8
:1025f800824f50001600360091c3b300814f50003f
:1026080003003e0001cdb3008140400010003700b8
:102618008040eb0002c4b300824f50000c0036002b
:1026280061c4b300814f500003003e0091ccb30059
:1026380081404000060037008040eb0062c6b300ce
:10264800824f500002003e0091cab3008140400012
:102658000140780000000600804078000000eb0090
:10266800f2c2b30082cf50001500360010002000df
:102678006a41410082cf5000110036000000eb0093
:102688006741410082cf50000d0036001000200045
:102698006641410082cf5000090036000000eb007f
:1026a8007a41410082cf500005003600100020001a
:1026b8006641410082cf5000010036000000eb0067
:1026c8000000060000417800eec8bf0081c0b300da
:1026d800c4c8b300824168000080fb000000d1003c
:1026e8000308a30001003200044068008140e900ab
:1026f800030032000281fb000201d100f5ff370020
:10270800eee8b70000000600f107200081417800dc
:10271800220320000349780001e02f0000804000d8
:102728001000ba000000060082052400023b880061
:10273800f207200002427800230320008449780031
:1027480002e02f00000141008001eb000309bb00fb
:102758000500fc0052052000323b8800a20a200038
:10276800323b880061e7a80000000000000000007c
:1027780003002800043b800004816100fdff3a004b
:1027880042002400023b8800f20720000242780041
:10279800230320008449780002e02f000000410054
:1027a8000108bb000500fc0050052000303b8800f4
:1027b800a00a2000303b880061e7a8000000000064
:1027c8000000000001002800023b80000280600039
:1027d800fdff3a0000000600889fbe0069802000c7
:1027e8000004eb0008007800c7ff0700802c780081
:1027f8000884e800fe0f5400faff3a0008c8bf003a
:102808008080fb00c408dd003140b30081417800be
:1028180042902000034978000004e00007003a00d5
:10282800504080006f40600008e8b700e14f50005a
:1028380002003e0000c0e80008e8b7004f04be00f0
:1028480000000600889fbe004427ef000102200018
:10285800123a800002806000fdff3200f0bf2f00b6
:1028680060198800c422ef000004200000168800c8
:10287800100020006016880041302c0041168800a6
:10288800a668ef00a768ef00e868ef00e968ef00c6
:10289800401188000180280001118800f03fb00035
:1028a80010118800cc82a9008560a9009560a80055
:1028b80032062000c211880081118800901188001a
:1028c800080120008808880084e0a9000621ef009c
:1028d80008c8bf000080fb00c91220000980b900a9
:1028e8004006b000214180000180b90060088800de
:1028f800c0050700000128002008880000c429003e
:10290800100888008460a900ea28ef00b2ff0700d9
:102918008808880084e0a9000621ef0008c8bf00e5
:102928000080fb000980b9004006b000214180000a
:102938000180b900600888000628ef004f04be0037
:1029480000000600618a2000914078000181fb00a8
:1029580063822000807179008140e8000174a10041
:1029680001417800608a20000248780000000600d3
:10297800a6c8bf008080fb00f3c3b30062822000ba
:1029880003f178000040e8000074a100a6e8b70051
:1029980000000600889fbe00ee68ef00f88e200059
:1029a800f40444005840780046ff0700890f54009b
:1029b800fcff3a00e18e2000914078005090200002
:1029c800014878004f04be0000000600889fbe0042
:1029d8008a9fbe008c9fbe002d0020002049e20087
:1029e80001003200fd0020006a8a20001a457800a4
:1029f8006c8020008005eb005c0478004c40de0011
:102a0800f2fe07008a80fb006982200080f47800cb
:102a18000a45e8000a74a1004840de00ebfe070002
:102a28008a80fb0080f478000a45e8000a74a10057
:102a38004440de00e5fe07008a80fb0080f4780051
:102a48000a45e8000a74a10008407800dffe070084
:102a58008a80fb0080f478000a45e8000a74a10027
:102a68008b05e8008b8f5600e3ff3e008a40780014
:102a7800608a2000014878004f06be004f05be005e
:102a88004f04be0000000600804078000000eb0004
:102a98000948e200030032000180fb000000ea0060
:102aa8004f00de0000000600889fbe008a9fbe001f
:102ab8008c1f780010c0b300f3ff07000000e0008f
:102ac80016003200688a20001844780079902000a7
:102ad80078864400594578000a80fb004400de00ef
:102ae800bafe07008880fb006b82200080f5780022
:102af8000844e8000874a1006f406500b3fe0700b1
:102b08008880fb0080f578000844e8000874a1007c
:102b18008c8f5400efff3a0019003700688a2000b4
:102b280018447800f98e20007886440059457800ca
:102b38000a80fb004400de00a4fe07008880fb003a
:102b48006b82200080f578000844e8000874a10032
:102b58006f4065009dfe07008880fb0080f57800c7
:102b68000844e8000874a1008c8f5400efff3a0075
:102b780088407800608a2000014878000300370008
:102b880088407800608a2000014878004f06780065
:102b98004f05be004f04be0000000600889fbe001f
:102ba8008a1f780010c0b300b7ff07000000e000dc
:102bb80032003200638a2000934178008090200020
:102bc80078044000424928004700200026002000e1
:102bd800104278008382fb00618220008484fb001d
:102be800c24cde00e2c47c0089f07a008341e80030
:102bf8000374a100634262000722dd009042900046
:102c08008384fb000585fb004455de000a42720000
:102c18000482fb0062427a0084f07c008341e80071
:102c28000374a10020429000efc26200862add00f2
:102c38008484fb00c64cde0089c272008384fb00da
:102c48008582fb00e2c27a0085f07c008341e800bf
:102c58000374a1008382fb00f403b20062427a008d
:102c680084f07a008341e8000374a1006300400007
:102c7800880f5000d6ff3a0035003700638a2000dd
:102c880093417800008f20007804400042492800d2
:102c98004700200026002000104278008382fb00b5
:102ca800618220008484fb00c24cde00e2c47c0008
:102cb80089f07a008341e8000374a100634262004e
:102cc8000722dd00904290008384fb000585fb000d
:102cd8004455de000a4272000482fb0062427a0018
:102ce80084f07c008341e8000374a1002042900036
:102cf800efc26200862add008484fb00c64cde0039
:102d080089c472008382fb008984fb00e2c47c00d2
:102d180089f07a008341e8000374a1008382fb00f4
:102d2800f403b20062427a0084f07a008341e8003a
:102d38000374a10063004000880f5000d6ff3a00da
:102d480083407800608a200001487800030037003b
:102d580083407800608a2000014878004f05780099
:102d68004f04be00000006000968b7000000060016
:102d780000c0ea000968b60000000600889fbe008f
:102d88008a1f78000044780050478000e30f500005
:102d98001101320004003e00e10f50009c00320097
:102da800c0003e0076013700e50f500004003200f5
:102db80010013900e60f50009b013a004900370026
:102dc8000840780024fe07000000e0009601320069
:102dd8005dc9bf008080fb001292200008f17800d6
:102de8000040e8005de9b700e54f50008e013a0069
:102df80021c9bf00fcfd07000044780022c9bf00bc
:102e0800f9fd07000884fb004444dd000080fb0056
:102e18000804700023c9bf00f3fd07004444dd0027
:102e28000080fb000804700024c9bf00eefd070005
:102e38004444dd000080fb0008007000204088004a
:102e48000a08e30025003a0025c9bf0011c3b300f2
:102e5800814f500003003a0020c0b300c2ff0700b2
:102e68000500370001c3b300814f500002003a004b
:102e780020c0b300beff0700a6c8bf008080fb00cb
:102e88006882200012c2b30002f478008044e8008f
:102e98000974a10008c8bf00ccfd07008980fb00a9
:102ea80000f478008944e8000974a1000980fb0057
:102eb80011c5b300017478000940e8000074a1004e
:102ec8008080fb00529220001241780002f47800c2
:102ed8000040e8000074a100a6e8b7000428ef004d
:102ee8005101370008407800dbfd07000000e000d2
:102ef800450032005dc9bf008080fb0012922000af
:102f080008f178000040e8005de9b700e54f50009f
:102f180045013a0021c9bf00b3fd0700004478000d
:102f280022c9bf00b0fd07000884fb004444dd004f
:102f38000080fb000804700023c9bf00aafd070039
:102f48004444dd000080fb000804700024c9bf0071
:102f5800a5fd07004444dd000080fb000800700068
:102f6800204088000a08e30025003a0025c9bf0070
:102f780011c3b300814f500003003a0010c0b300e2
:102f880079ff07000500370001c3b300814f5000e7
:102f980002003a0010c0b30075ff0700a6c8bf00c2
:102fa8008080fb006882200012c2b30002f478001f
:102fb8008044e8000974a10008c8bf0083fd070029
:102fc8008980fb0000f478008944e8000974a100b6
:102fd8000980fb00d1c4b300017478000940e800ff
:102fe8000074a1008080fb005292200012417800fa
:102ff80002f478000040e8000074a100a6e8b700d9
:103008000428ef0008013700ea28ef00060137001e
:103018000840780090fd07000000e0001f00320023
:103028005dc9bf008080fb001292200008f1780083
:103038000040e8005de9b700e44f5000fa003a00ac
:1030480021c9bf0068fd07000044780022c9bf00fd
:1030580065fd07000884fb004444dd000080fb0098
:103068000804700023c9bf005ffd07004444dd0069
:103078000080fb000804700024c9bf005afd070047
:103088004444dd000080fb000800700020408800f8
:10309800c022a8006860a800e3003700ea28ef0013
:1030a800e1003700084078006bfd07000000e000f1
:1030b800470032005dc9bf008080fb0012922000eb
:1030c80008f178000040e8005de9b700e54f5000de
:1030d800d5003a0021c9bf0043fd0700004478002d
:1030e80022c9bf0040fd07000884fb004444dd00fe
:1030f8000080fb000804700023c9bf003afd0700e8
:103108004444dd000080fb000804700024c9bf00af
:1031180035fd07004444dd000080fb000800700016
:10312800204088000a08e30026003a0025c9bf00ad
:103138002dfd070008e8b700414080000000eb00c3
:1031480079fd0700000120008008880084e0a900bc
:103158000621ef0008c8bf000081fb00c112200053
:103168000191b9004206b000214180000191b900e7
:1031780062088800e14f500002003a001100200068
:1031880031408800618a2000914078000181fb006d
:103198006882200013c2b300037479008144e800f8
:1031a8000974a10009fd07008980fb0000f478007c
:1031b8008944e8000974a10089407800608a2000e9
:1031c800014878000428ef00ea28ef00960037004d
:1031d800ea28ef00940037000840780002fd070055
:1031e8000848e30001003a00f8fd0700ea28ef006c
:1031f8008d0037000840780017fd07000000e00048
:103208005d003200d9952000994478000840780084
:10321800f5fc07008980fb001292200000f178007d
:103228008944e800d29520000949780030c3b300ea
:1032380080cf54007c003a0021c9bf000848e30051
:103248004b003a00ee68ef001892200009032000b6
:10325800888444001880fb004400dd0098409000fa
:1032680000c0700017fd07000884e800890f5400ab
:10327800f8ff3a00e18e2000914078008180fb0041
:1032880022952000124178000281fb004411dd00e4
:1032980053c9bf000080fb0002007000808f5000ff
:1032a80018003a0028922000490020009880fb006e
:1032b800c408dd00184090000080fb008100700009
:1032c800c408dd00284090000080fb0081007000e9
:1032d800c408dd00384090000080fb0081007000c9
:1032e80021408800090078000ffd07003afd07001b
:1032f800640444008984e800fc8f5400ebff3a0022
:103308000428ef00a6c8bf008080fb006882200068
:1033180012c2b30002f478008044e8000974a100e6
:10332800ea8e20001a4578000a80fb004400de007f
:10333800a6fc07008980fb0000f478008944e800b7
:103348000974a1000a407800a0fc07008980fb00ee
:1033580000f478008944e8000974a1000941780064
:10336800618a200082487800ea28ef002e003700a2
:10337800ea28ef002c003700ea28ef002a0037007f
:1033880000c4b300804f540004003a00100020002d
:10339800504788005d69ef002300370030c2b30052
:1033a800804f540004003a00200020005047880055
:1033b8005d69ef001c00370040c2b300804f540025
:1033c80004003a0050002000504788005d69ef0073
:1033d80015003700b0c5b300804f540004003a0010
:1033e80060002000504788005d69ef000e0037003c
:1033f800c0c2b300804f540005003a0030002000de
:103408005047880010c0b30020e9b7000600370015
:10341800b0c3b300804f540003003a0040002000be
:10342800504788005d69ef004f0578004f04be00e3
:103438000000060080007800008f2000fd040700cf
:1034480000000600889fbe008a1f7800e9c8bf00f8
:10345800e848e300bc0032000408e200060032003d
:103468000428ef006860a900c10f2000a11188009e
:10347800a1118800a11188008080fb00828a2000a9
:1034880062c478000040e800f043b200e9e8b70001
:10349800f0c3b300804f54001b003a0020c0b300b3
:1034a80079fd07000000e00017003a00ea28ef0065
:1034b8000621ef00000128008008880084e0a900a8
:1034c800c00f2000a0118800a0118800a01188005a
:1034d80010002000604788006bfd07000000e00036
:1034e800040032001100200080902000d30407005f
:1034f8000300370011002000008f2000cd040700d2
:1035080024fd070034003700e0c3b300804f5400a7
:1035180017003a0020418000e90f500014003e00d7
:103528008000e80021418800000120008008880010
:1035380084e0a9000621ef00828020001241780073
:103548000281fb00c01220000091b9004006200053
:10355800020040000180b90060088800c00f200008
:10356800a0118800a0118800a0118800370037003a
:10357800c0c3b300804f540017003a0020418000b8
:10358800e60f5000140036008000e9002141880051
:10359800000120008008880084e0a9000621ef00cf
:1035a80082802000124178000281fb00c0122000b6
:1035b8000091b90040062000020040000180b900d7
:1035c80060088800c00f2000a0118800a0118800a2
:1035d800a011880026003700e0c2b300804f5400d5
:1035e8001a003a00ea28ef007bfc07002069ef0088
:1035f800000120008008880084e0a9000621ef006f
:1036080081802000914078008180fb00c01220005a
:103618000088b9004006b000214180000180b9004f
:10362800600888000621ef00000128008008880053
:1036380084e0a900c00f2000a0118800a011880014
:10364800a0118800ec28ef002a00370000c2b30060
:10365800804f540006003a00ea28ef0008c8bf006f
:10366800e14f500002003a000628ef00340037000e
:10367800a0c2b300804f54001e003a0020c0b3001f
:1036880001fd07000000e0002d003200ea28ef00ed
:1036980051fc07002069ef00000120008008880025
:1036a80084e0a9000621ef00818020009140780085
:1036b8008180fb00c01220000088b9004006b000dd
:1036c800214180000180b900600888000621ef00d0
:1036d800000128008008880084e0a900c00f2000ad
:1036e800a0118800a0118800a0118800ec28ef0024
:1036f8001300370080c2b300804f540010003a0016
:1037080010c0b300e0fc07000000e0000300320036
:1037180010c0b30096fd07000200370010c0b300c8
:1037280091fd07004141800000012000fefb0700d9
:10373800c00f2000a0118800a0118800a0118800e7
:10374800084078008dfd0700a7c8bf00a648e30021
:103758000d00320061168000cc82a8002322ab0045
:103768000e003a008080fb0062822000e2c07800f0
:103778008180fb00211188000040e8000074a1004e
:10378800a7e8b70005003700cc82ab000300320081
:103798002302ab0001003200cc82a9002140800046
:1037a8000100e0002b003200c222ab0029003a00e1
:1037b8005140880020002000dbfb07006a8a2000b7
:1037c8001a4578000a80fb006882200011c2b30005
:1037d800017478000a45e8000a74a10029408000b5
:1037e8004c48de0079fb07008a80fb0000f4780073
:1037f8000a45e8000a74a1004848de0073fb070088
:103808008a80fb0000f478000a45e8000a74a100e9
:103818004448de006dfb07008a80fb0000f4780056
:103828000a45e8000a74a1000940780067fb070010
:103838008a80fb0000f478000a45e8000a74a100b9
:103848008a407800608a2000014878000428ef0048
:103858006860a90010118000660060000200320054
:10386800900f20002222b6004f0578004f04be00ba
:103878000000060084e0ab000800320084e0a900e4
:103888000001200080088800ec08e20002003200f5
:10389800c2fc0700010037004cfc070000000600ce
:1038a8000600fa0066805700814d280003000900d1
:1038b80031587800039920005205200041c0b30018
:1038c80066805700ae020700804c8000e20f50006f
:1038d800fdff3a000064200001002000c203070039
:1038e800239920005205200011c0b3000f80e90081
:1038f8008e020700904c8000e20f5000fdff3a0056
:103908000080fa00000006000600fa0066805700f2
:10391800c14d2800030009003158780003992000a0
:103928005205200041c0b30066805700940207008a
:10393800804c8000e20f5000fdff3a000064200038
:1039480001002000a8030700239920005205200049
:1039580011c0b3000f80e90074020700904c80008a
:10396800e20f5000fdff3a000080fa000000060058
:10397800c082a900c9c2a900c282a900cbc2a900fd
:10398800001027002100200097030700c282a8002a
:1039980000602300e11620009303070000000600e2
:1039a8000400fa0010c0b300c0ff9f000040eb0005
:1039b800d0ff9f00e0ff9f000399200052052000e0
:1039c80031c0b300648057006d020700804c80004e
:1039d800e20f5000fdff3a000080fa0000000600e8
:1039e800e3ff0700eeff070000002500310c200070
:1039f8007d030700000006000400fa0021c0b300a0
:103a0800c1ff9f000040eb00d0ff9f0003992000fa
:103a1800520520006480570059020700804c80003e
:103a2800e20f5000fdff3a002399200052052000c4
:103a380021c0b3000f80e9003c020700904c8000d1
:103a4800e20f5000fdff3a000080fa000000060077
:103a58000400fa0000c0eb00c0ff9f000040eb002c
:103a6800d0ff9f00039920005205200021c0b30019
:103a78006480570042020700804c8000e20f50002b
:103a8800fdff3a00239920005205200021c0b30011
:103a98000f80e90025020700904c8000e20f5000db
:103aa800fdff3a007ff897000004a2000080fb00a9
:103ab8000000e9004f00de000080fa000000060068
:103ac8002600fa0000c1b300a0df9f000040eb0011
:103ad800b0df9f0010c0b300c0df9f000399200033
:103ae8005205200031c0b300a0fd2f000f00400098
:103af80023020700804c8000e20f5000fdff3a00cf
:103b0800239920005205200011c0b300d0fd2f00da
:103b18000f00400005020700904c8000e20f5000a3
:103b2800fdff3a0000c1b300e0df9f0010c0b30002
:103b3800f0df9f0080e79f000399200052052000d6
:103b480031c0b300e0fd2f000f0040000c02070059
:103b5800804c8000e20f5000fdff3a0023992000be
:103b68005205200011c0b3007f805700ef01070005
:103b7800904c8000e20f5000fdff3a007e80570015
:103b8800014f2800030009003158780003992000ec
:103b98005205200041c0b3007e805700f80107009d
:103ba800804c8000e20f5000fdff3a0000302500f5
:103bb800710020000c030700239920005205200003
:103bc80011c0b3007a805700d8010700904c8000dc
:103bd800e20f5000fdff3a0040c4b300f0e79f0039
:103be8000040eb0080ef9f0010c0b30090ef9f00f3
:103bf800039920005205200031c0b3007980570096
:103c0800df010700804c8000e20f5000fdff3a0002
:103c180000e0230091042000f3020700239920000c
:103c28005205200011c0b30076805700bf0107007d
:103c3800904c8000e20f5000fdff3a0000a02600e3
:103c480081012000e80207002fff07007580570058
:103c5800c14e28000300090031587800039920005c
:103c68005205200041c0b30075805700c401070009
:103c7800804c8000e20f5000fdff3a0000642000f5
:103c880001002000d80207002399200052052000d7
:103c980011c0b30071805700a4010700904c800048
:103ca800e20f5000fdff3a0070805700814e280057
:103cb80003000900315878000399200052052000bc
:103cc80041c0b30070805700ad010700804c8000f0
:103cd800e20f5000fdff3a000064200001002000c0
:103ce800c1020700239920005205200011c0b3002b
:103cf8006c8057008d010700904c8000e20f500047
:103d0800fdff3a006b805700414e28000300090070
:103d180031587800039920005205200041c0b300b3
:103d28006b80570096010700804c8000e20f50001e
:103d3800fdff3a000064200001002000aa020700ed
:103d4800239920005205200011c0b3006780570056
:103d580076010700904c8000e20f5000fdff3a000a
:103d680066805700014e280003000900315878008a
:103d7800039920005205200041c0b3006680570017
:103d88007f010700804c8000e20f5000fdff3a00e1
:103d980000642000010020009302070023992000fe
:103da8005205200011c0b3000f80e9005f01070031
:103db800904c8000e20f5000fdff3a00b8fe07006b
:103dc8000080fa00000006000600fa00668057002e
:103dd800414d28000300090031587800039920005c
:103de8005205200041c0b3006680570064010700f7
:103df800804c8000e20f5000fdff3a000064200074
:103e080001002000780207002399200052052000b5
:103e180011c0b3000f80e90044010700904c8000f6
:103e2800e20f5000fdff3a000080fa000000060093
:103e38000a00fa00889fbe008a9fbe0080047800ae
:103e48008f0578000040eb00004f7800104798007d
:103e5800039920005205200021c0b3000e0078000d
:103e680047010700804c8000e20f5000fdff3a0038
:103e7800239920005205200021c0b3000e80e800dd
:103e88002a010700904c8000e20f5000fdff3a0025
:103e980020c1b300404798000040eb00504798000d
:103ea800039920005205200021c0b3006400470098
:103eb80033010700804c8000e20f5000fdff3a00fc
:103ec800239920005205200021c0b3006600470056
:103ed80016010700904c8000e20f5000fdff3a00e9
:103ee80020c1b300004f980010c0b300104f9800d5
:103ef8007e4090007200b9000045e8000a80fb008f
:103f08000080e800e01fb2000f04780080874700b7
:103f1800039920005205200021c0b3006800470023
:103f280017010700804c8000e20f5000fdff3a00a7
:103f380023992000520520008a4078000800780064
:103f4800fa000700904c8000e20f5000fdff3a0095
:103f580018409000804c78002840900090449800c9
:103f680038409000a044980048409000b044980021
:103f780058409000c044980068409000d044980091
:103f880078409000e044980008489000f044980079
:103f980018489000804c980028489000904c980051
:103fa80038489000a04c980048489000b04c9800c1
:103fb80058489000c04c980068489000d04c980031
:103fc80078489000e04c980008509000f04c980019
:103fd80018509000805498002854900098549800e5
:103fe8008b0778004f05be004f04be000080fa0022
:103ff8000000060093000700000006000800fa0011
:10400800e0ff9f0011002000c1bf9f00d1bf9f00ab
:10401800e8815700520520000f80e900d80007000a
:104028000040eb00cfb897000100e000100032001c
:104038004fb89700e20f5000fdff3a00e6815700a5
:104048005205200011c0b30064805700b700070074
:10405800dfb897000040eb000100e00004003200e8
:104068005fb89700e20f5000fdff3a004ff8970045
:104078000080fa00000006000400fa001200200088
:10408800e2bf9f00e0ff9f00f1ff9f00e48157001f
:104098005205200021c0b3000f80e900b8000700d6
:1040a8000000eb00efb897000100e00004003200c8
:1040b8006fb89700e20f5000fdff3a001000200093
:1040c8000080fa00000006000400fa00889fbe0085
:1040d800800478000244780010002000c0bf9f00d0
:1040e800d0bf9f000104e0000b003200e8815700b8
:1040f8005205200009007800a10007000000eb002d
:10410800cfb897000100e000150032004fb89700c3
:10411800e20f5000fdff3a00100020000804e00004
:104128000f003200c00320000ef90700e681570097
:104138005205200088407800090078007b000700bd
:10414800dfb897000000eb000100e0000400320037
:104158005fb89700e20f5000fdff3a001000200002
:104168004f04be000080fa0000000600889fbe00d1
:104178008a9fbe0080447800814578000204780058
:1041880003057800094078009cff07001100200013
:104198000a0ddd000a05e9000855dd008b85fb00e6
:1041a800085cdd008ac0ea008140600008456500bf
:1041b8008ac0700009407800afff07004f05be00b5
:1041c8004f04be0000000600889fbe00010478006e
:1041d8008204780089ff07000080fb000884de0065
:1041e800100020008904dd008944e90009406400ca
:1041f8004f04be0000000600600020007e29b400c5
:104208007c49ed007ce9b70003003a00400020003b
:10421800604b88000200370010002000604b8800c7
:10422800000006000642a800d14b8000a1009000c3
:104238000100e00001003200800878006c29ef00de
:1042480000000600e095200061962000110098000b
:1042580001087800a00090000110a0000100a10052
:10426800210098008040eb00614098005002200037
:104278002010880000002800301088000822ef0075
:104288008620a9009620a8000000060064c9bf0087
:10429800000006006209ab001c003a001300200071
:1042a80003097800e49520009401780091019800b2
:1042b80080497800a2019800e6814100030a78004d
:1042c800c0962000808f510002003a0060962000be
:1042d800f04a8800e0952000a00090000110a1009d
:1042e8002100980090009000908f500003003a0041
:1042f800a00090000100a000210098006c09e200d5
:1043080003003a008620a800010037000009eb00ee
:1043180000000600838141000300a0000308780024
:10432800224098002100980000000600881f7800ad
:10433800030478006209ab000a003a0082017800a1
:104348000141780080007800e0962000f1ff070026
:1043580008017800e196200010c0b300cdff0700e7
:1043680001003700000ceb004f0478000000060045
:1043780003884100224098002100980000000600b0
:10438800881f7800030478006209ab000a003a002d
:104398008201780001417800800078004097200071
:1043a800f3ff0700080178004197200010c0b30010
:1043b800b8ff070001003700000ceb004f0478003d
:1043c800000006006209d5006100600000000600d8
:1043d800104b800061006000000006008421ef009f
:1043e80030012000100c8800000c8800e00020003c
:1043f800200c880078004000700888009500a9000b
:1044080013e1a8000000060000c4b300fbfe07008b
:104418000064a2000080fb000000e9004f00de00fd
:104428000000060011c1b30010c0b30012ff07005e
:1044380091c1b30020c0b3000fff070071c0b300e3
:10444800a0c0b3000cff070041c0b300c0c0b30058
:1044580009ff070021c0b30020c1b30006ff070011
:1044680061c0b30020c1b30003ff070041c2b3001d
:1044780040c1b30000ff070081c3b30030c1b300df
:10448800fdfe070021c0b30010c2b300fafe07000a
:1044980021c0b30020c2b300f7fe070021c0b3005b
:1044a80030c2b300f4fe070081c0b30070c2b3008d
:1044b800f1fe070001c3b300f0c2b300eefe07002f
:1044c80011c0b3000040eb00ebfe0700000006003f
:1044d800889fbe008004780001047800509820006e
:1044e8006a0140008040eb0001687800820f5000ac
:1044f800fdff3a0000c5b30086e9b70072c0b300fb
:1045080011c0b30060982000effe07006340b900b7
:104518008084440009007800619820009140780068
:10452800015878007198200091407800014878007f
:1045380088c9bf00a0449800919820009140780055
:10454800e15c98008ac9bf00f05c9800b19820002f
:1045580091407800816498004f04be000000060076
:10456800cde2a900b0632000101288004422ef00b9
:104578000000280000128800cde2a8000000060014
:10458800889fbe008a9fbe0000047800010578005d
:104598008205780083047800cde2a900000220009b
:1045a8000100200090000700e18f44000400320061
:1045b8000000eb000a00e0000e003a00150037008a
:1045c8000a00e0001f0032000000eb00b80078008d
:1045d800411288004002ab00feff32004212800008
:1045e800821d78000000e8008a0f5000f7ff3900ac
:1045f80014003700b8007800411288004002ab0070
:10460800feff3200411280000000e8008a0f5000cf
:10461800f8ff39000900e0000a0032000000eb0052
:1046280080007800411288004002ab00feff320093
:1046380042128000821d78000000e800890f5000b7
:10464800f8ff3a0000022000010020006600070081
:10465800cde2a8000000eb004f05be004f04be00ed
:1046680000000600cde2a9000080fb000070a00059
:10467800401288004002ab00feff3200401280006a
:104688004822ef004002ab00feff320040128000db
:10469800cde2a80000000600cde2a900f007b200b4
:1046a800401288004002ab00feff3200401280003a
:1046b8008180fb00411288004002ab00feff3200ff
:1046c80040128000cde2a80000000600001e200075
:1046d80000198800c022b0001019880000102000be
:1046e800201988002823ef00004021008019880045
:1046f80021e3a800000006000330200085a0a900df
:104708002043a800020022002404800084006100e5
:10471800fdff32002043a900121880008040eb0002
:10472800f40f200013486200934190001340980052
:10473800224098004811de0032409800414098001d
:0847480051409800000006003a
:020000040000fa
:10475000000800005e010000000000009409000055
:1047600002000000020000000100000096090000a5
:104770000200000000000000860900000a0000009e
:10478000000000005e09000028000000000000009a
:104790009009000004000000020000000100010078
:0847a000000000000000000011
:020000040000fa
:1047a80028f807001e000700130020000001eb0096
:1047b80083007800a046240071ff07001300200042
:1047c8000001eb0083007800a04625006cff07007d
:1047d800130020000001eb0083007800a0462600ab
:0847e80067ff0700ffff370027
:020000040000fa
:1047f000f03fb1000180b10006003500ee03090072
:1048000000000000403fb1000180b100fbff3d000f
:104810001000b000203fb000020035000080090009
:0848200000000000000006008a
:020000040000fa
:10482800aaff07001000200000000600100020006a
:1048380000000600b0ff070000000600aeff0700fa
:044848000000060066
:020000040000fa
:0200000400fffb
:10fc000003000000f3ff00000040000000000000bf
:10fc100000000000000000000040000000000000a4
:10fc20000000000000000000004000000000000094
:0cfc3000000000000000000008000000c0
:020000040000fa
:0200000401f009
:04000000ffff0000fe
:020000040000fa
:0200000401f009
:04000800ffff0000f6
:020000040000fa
:0200000401f009
:04000c00810000006f
:020000040000fa
:0200000401f009
:040010001b000000d1
:020000040000fa
:0200000401f009
:040014005f00000089
:020000040000fa
:0200000401f009
:04001800780000006c
:020000040000fa
:0200000401f009
:04001c00c20000001e
:020000040000fa
:0200000401f009
:040020001f000000bd
:00000001FF
