:020000040000fa
:080000000002040000000000f2
:020000040000fa
:04000800ec02000006
:020000040000fa
:04000c00ec02000002
:020000040000fa
:04001000ec020000fe
:020000040000fa
:04001400ec020000fa
:020000040000fa
:04001800ec020000f6
:020000040000fa
:04001c00ec020000f2
:020000040000fa
:04002000ec020000ee
:020000040000fa
:04002400ec020000ea
:020000040000fa
:04002800ec020000e6
:020000040000fa
:04002c00ec020000e2
:020000040000fa
:04003000ec020000de
:020000040000fa
:04003400ec020000da
:020000040000fa
:04003800ec020000d6
:020000040000fa
:04003c00ec020000d2
:020000040000fa
:04004000ec020000ce
:020000040000fa
:04004400ec020000ca
:020000040000fa
:04004800ec020000c6
:020000040000fa
:04004c00ec020000c2
:020000040000fa
:04005000ec020000be
:020000040000fa
:04005400c8020000de
:020000040000fa
:04005800ec020000b6
:020000040000fa
:04005c00ec020000b2
:020000040000fa
:04006000ec020000ae
:020000040000fa
:04006400ec020000aa
:020000040000fa
:04006800ec020000a6
:020000040000fa
:04006c00ec020000a2
:020000040000fa
:04007000ec0200009e
:020000040000fa
:04007400ec0200009a
:020000040000fa
:04007800ec02000096
:020000040000fa
:04007c00ec02000092
:020000040000fa
:04008000ec0200008e
:020000040000fa
:04008400ec0200008a
:020000040000fa
:04008800ec02000086
:020000040000fa
:04008c00ec02000082
:020000040000fa
:04009000ec0200007e
:020000040000fa
:04009400ec0200007a
:020000040000fa
:04009800ec02000076
:020000040000fa
:04009c00ec02000072
:020000040000fa
:0400a000ec0200006e
:020000040000fa
:0400a400ec0200006a
:020000040000fa
:0400a800ec02000066
:020000040000fa
:0400ac00ec02000062
:020000040000fa
:0400b000ec0200005e
:020000040000fa
:0400b400ec0200005a
:020000040000fa
:0400b800ec02000056
:020000040000fa
:0400bc00ec02000052
:020000040000fa
:0400c000ec0200004e
:020000040000fa
:0400c400ec0200004a
:020000040000fa
:0400c800ec02000046
:020000040000fa
:0400cc00ec02000042
:020000040000fa
:0400d000ec0200003e
:020000040000fa
:0400d400ec0200003a
:020000040000fa
:0400d800ec02000036
:020000040000fa
:0400dc00ec02000032
:020000040000fa
:0400e000ec0200002e
:020000040000fa
:0400e400ec0200002a
:020000040000fa
:0400e800ec02000026
:020000040000fa
:0400ec00ec02000022
:020000040000fa
:0400f000ec0200001e
:020000040000fa
:0400f400ec0200001a
:020000040000fa
:0400f800ec02000016
:020000040000fa
:0400fc00ec02000012
:020000040000fa
:04010000ec0200000d
:020000040000fa
:04010400ec02000009
:020000040000fa
:04010800ec02000005
:020000040000fa
:04010c00ec02000001
:020000040000fa
:04011000ec020000fd
:020000040000fa
:04011400ec020000f9
:020000040000fa
:04011800ec020000f5
:020000040000fa
:04011c00ec020000f1
:020000040000fa
:04012000ec020000ed
:020000040000fa
:04012400ec020000e9
:020000040000fa
:04012800ec020000e5
:020000040000fa
:04012c00ec020000e1
:020000040000fa
:04013000ec020000dd
:020000040000fa
:04013400ec020000d9
:020000040000fa
:04013800ec020000d5
:020000040000fa
:04013c00ec020000d1
:020000040000fa
:04014000ec020000cd
:020000040000fa
:04014400ec020000c9
:020000040000fa
:04014800ec020000c5
:020000040000fa
:04014c00ec020000c1
:020000040000fa
:04015000ec020000bd
:020000040000fa
:04015400ec020000b9
:020000040000fa
:04015800ec020000b5
:020000040000fa
:04015c00ec020000b1
:020000040000fa
:04020800ec02000004
:020000040000fa
:04020c00ec02000000
:020000040000fa
:04021000ec020000fc
:020000040000fa
:04021400ec020000f8
:020000040000fa
:04021800ec020000f4
:020000040000fa
:04021c00ec020000f0
:020000040000fa
:04022000ec020000ec
:020000040000fa
:04022400ec020000e8
:020000040000fa
:04022800ec020000e4
:020000040000fa
:04022c00ec020000e0
:020000040000fa
:04023000ec020000dc
:020000040000fa
:04023400ec020000d8
:020000040000fa
:04023800ec020000d4
:020000040000fa
:04023c00ec020000d0
:020000040000fa
:04024000ec020000cc
:020000040000fa
:04024400ec020000c8
:020000040000fa
:04024800ec020000c4
:020000040000fa
:04024c00ec020000c0
:020000040000fa
:04025000ec020000bc
:020000040000fa
:04025400c8020000dc
:020000040000fa
:04025800ec020000b4
:020000040000fa
:04025c00ec020000b0
:020000040000fa
:04026000ec020000ac
:020000040000fa
:04026400ec020000a8
:020000040000fa
:04026800ec020000a4
:020000040000fa
:04026c00ec020000a0
:020000040000fa
:04027000ec0200009c
:020000040000fa
:04027400ec02000098
:020000040000fa
:04027800ec02000094
:020000040000fa
:04027c00ec02000090
:020000040000fa
:04028000ec0200008c
:020000040000fa
:04028400ec02000088
:020000040000fa
:04028800ec02000084
:020000040000fa
:04028c00ec02000080
:020000040000fa
:04029000ec0200007c
:020000040000fa
:04029400ec02000078
:020000040000fa
:04029800ec02000074
:020000040000fa
:04029c00ec02000070
:020000040000fa
:0402a000ec0200006c
:020000040000fa
:0402a400ec02000068
:020000040000fa
:0402a800ec02000064
:020000040000fa
:0402ac00ec02000060
:020000040000fa
:0402b000ec0200005c
:020000040000fa
:0402b400ec02000058
:020000040000fa
:0402b800ec02000054
:020000040000fa
:0402bc00ec02000050
:020000040000fa
:0402c000ec0200004c
:020000040000fa
:0402c400ec02000048
:020000040000fa
:0402c800ec02000044
:020000040000fa
:0402cc00ec02000040
:020000040000fa
:0402d000ec0200003c
:020000040000fa
:0402d400ec02000038
:020000040000fa
:0402d800ec02000034
:020000040000fa
:0402dc00ec02000030
:020000040000fa
:0402e000ec0200002c
:020000040000fa
:0402e400ec02000028
:020000040000fa
:0402e800ec02000024
:020000040000fa
:0402ec00ec02000020
:020000040000fa
:0402f000ec0200001c
:020000040000fa
:0402f400ec02000018
:020000040000fa
:0402f800ec02000014
:020000040000fa
:0402fc00ec02000010
:020000040000fa
:04030000ec0200000b
:020000040000fa
:04030400ec02000007
:020000040000fa
:04030800ec02000003
:020000040000fa
:04030c00ec020000ff
:020000040000fa
:04031000ec020000fb
:020000040000fa
:04031400ec020000f7
:020000040000fa
:04031800ec020000f3
:020000040000fa
:04031c00ec020000ef
:020000040000fa
:04032000ec020000eb
:020000040000fa
:04032400ec020000e7
:020000040000fa
:04032800ec020000e3
:020000040000fa
:04032c00ec020000df
:020000040000fa
:04033000ec020000db
:020000040000fa
:04033400ec020000d7
:020000040000fa
:04033800ec020000d3
:020000040000fa
:04033c00ec020000cf
:020000040000fa
:04034000ec020000cb
:020000040000fa
:04034400ec020000c7
:020000040000fa
:04034800ec020000c3
:020000040000fa
:04034c00ec020000bf
:020000040000fa
:04035000ec020000bb
:020000040000fa
:04035400ec020000b7
:020000040000fa
:04035800ec020000b3
:020000040000fa
:04035c00ec020000af
:020000040000fa
:100400006f9620000edf20000e0188000000000023
:10041000000020000000e000020032000001200087
:1004200020028800140007006d0007000000e000b3
:1004300003003a00400a22000100200002003700b9
:100440000000200001002000810f70000100320038
:1004500014000700000020000000e000020032004d
:100460000000020000000000102002000000000058
:100470000040da000000fe004440a9000004200013
:100480000000e0000300320000002000a00188000e
:100490004440a800000006008a1f78008b1f7800e7
:1004a0000000060091018800800478000000eb0045
:1004b0001a003700e284440032a0b4009905ba0063
:1004c000e284440032a0b4009906ba00e2844400f9
:1004d00032a0b4000006eb00476fde00fd07b2005b
:1004e000636ce10003003a00ebff07000000eb0043
:1004f0000a003700606ce10004003a00005deb0088
:100500008b05e900fdff3e00040037006168e10053
:10051000010032000086eb000b00070019c7ba008b
:100520001905ba000e04e00003003a000a00e000da
:10053000e0ff3a0000000600fe07b2009e018800be
:100540008a047800f5ff3700395dba008b05e900b1
:100550000c003200295dba008b05e900080032006a
:100560000c00e00003003a00e284440032a0b40032
:10057000f5ff370019ddba008b05e900faff3a00f4
:100580008904e800e184440032a0b40000000600c1
:10059000809fbe00829fbe003400f8000000200053
:1005a000a0018800e8c8bf00331180008080fb00f4
:1005b000828a200003f178000040e800f043b20096
:1005c000e8e8b7008560a9003400f9004f01be00db
:1005d0004f00be00004006000040da000000fe00b0
:0405e0000000050012
:020000040000fa
:1005e40041420000434400004546000047480000e3
:1005f400494a00004b4c00004d4e00004f50000093
:100604005152000053540000555600005758000042
:10061400595a0000616200006364000065660000ce
:1006240067680000696a00006b6c00006d6e000072
:100634006f70000071720000737400007576000022
:1006440077780000797a00003031000032330000fe
:100654003435000036370000383900002b2f0000f5
:020000040000fa
:100664000040eb00300e070000000600fcff07000e
:1006740081cdb300014068000080fb000000e90068
:100684004f00de0000000600420020008000eb0066
:1006940040c4b300550e07000000060043002000cc
:1006a4000001eb008040780040c4b300380e07001e
:1006b40000000600420020008000eb0020c4b300cc
:1006c4004a0e070000000600430020000001eb0072
:1006d4008040780020c4b3002d0e070000000600ff
:1006e400420020008000eb0000c4b3003f0e07006e
:1006f40000000600430020000001eb008040780069
:1007040000c4b300220e07000000060022002000ef
:100714004100200020c4b300340e0700000006008e
:1007240023002000420020008040780020c4b30051
:10073400170e0700000006003200200041002000d0
:1007440000c4b300290e0700000006003300200097
:10075400420020008040780000c4b3000c0e070063
:1007640000000600320020008000eb0030c4b3001b
:100774001e0e070000000600330020000001eb00fd
:100784008040780030c4b300010e0700000006006a
:10079400420020008000eb0010c4b300130e0700d9
:1007a40000000600430020000001eb0080407800b8
:1007b40010c4b300f60d070000000600889fbe00b9
:1007c40061cbb300e0c7b300e00d070010002000c8
:1007d40090060700f0c7b300d30d070010002000f7
:1007e4008c06070011c1b300e0c7b300d70d0700a2
:1007f4001000200087060700280020004900200080
:10080400020037001000200082060700080178006b
:100814008900780030c0b300f40d0700e14f5000a8
:10082400f8ff3a0051c1b300e0c7b300c70d070099
:1008340010002000770607002800200039c0b3000c
:10084400020037001000200072060700080178003b
:100854008800780009407800e40d0700e14f50005b
:10086400f8ff3a00c4ff0700c0c0b300cdff070083
:1008740080c0b3009fff070080c0b30092ff070051
:1008840091c1b300e0c7b300b00d0700c00320005e
:100894006006070001c4b30090c6b300ab0d0700a7
:1008a40071c3b300e0c7b300a80d0700a1c9b3002a
:1008b400e0c7b300a50d070001ccb300e0c7b30047
:1008c400a20d070001c9b300f0c7b3009f0d0700d4
:1008d40023002000420020008340780050c0b30071
:1008e400ab0d070001c8b300f0c7b300970d0700b4
:1008f40031c8b300c0c4b300940d07002300200026
:100904004200200083407800b0c6b300a00d070069
:1009140011c0b300f0c4b3008c0d0700b1c4b30020
:10092400e0c4b300890d0700300020003906070039
:1009340041c0b300f0c4b300840d070011c5b30077
:10094400e0c4b300810d0700e1c0b300f0c4b300fc
:100954007e0d070021c5b300e0c4b3007b0d070082
:1009640021c0b300f0c4b300780d0700c1c4b300c4
:10097400e0c4b300750d070021c4b300d0c4b300b4
:10098400720d070061c0b30040c4b3006f0d0700cf
:1009940013002000720020008040eb00c0c4b300ac
:1009a4007b0d0700280020008004eb0002003700c4
:1009b400100020001706070008017800890078005d
:1009c40030c0b300890d0700e14f5000f8ff3a0032
:1009d40080c0eb0050c5b3005c0d070001cfb3002d
:1009e40060c5b300590d07008040eb0070c5b3002b
:1009f400560d07004f04be00000006001200200040
:100a04006100200070c7b300780d07000080fb0070
:100a14000000ea004f00de00000006008080fb00ba
:100a24008100ea00cf08de001300200062002000ed
:100a340070c7b300560d070000000600889fbe0073
:100a4400e10f500006003200e10f400006003200c2
:100a540001c3b3000000e0000400320013003700bb
:100a640001c1b3000100370001c2b30090c6b30056
:100a7400360d070031c0b300e0c7b300330d0700e3
:100a84001800200039002000020037000800780018
:100a9400e00507000801780089007800b0c1b300c0
:100aa400520d07000004e000f8ff32004f04be00be
:100ab40000000600889fbe00e10f500006003200cf
:100ac400e10f400006003200c1c0b3000000e000a6
:100ad400040032001300370041c0b30001003700a6
:100ae40081c0b30090c6b300180d070031c0b30035
:100af400e0c7b300150d07001800200039002000de
:100b04000200370008007800c205070008017800d9
:100b140089007800b0c1b300340d07000004e00080
:100b2400f8ff32004f04be0000000600889fbe009c
:100b3400e10f500006003200e10f400006003200d1
:100b440031c0b3000000e00004003200130037009d
:100b540011c0b3000100370021c0b30090c6b30038
:100b6400fa0c070031c0b300e0c7b300f70c07006c
:100b74001800200039002000020037000800780027
:100b8400a40507000801780089007800b0c1b3000b
:100b9400160d07000004e000f8ff32004f04be0009
:100ba4000000060010c7b300df0c070000000600b9
:100bb40020c7b300dc0c07000000060030c7b300f8
:100bc400d90c07000000060012002000710020006c
:100bd40070c7b300050d07000080fb000000ea00a9
:100be4004f00de00000006008080fb008100ea0068
:100bf400cf08de00130020007200200070c7b3008d
:100c0400e30c070000000600889fbe0001c4b30087
:100c140090c6b300cd0c070031c0b300e0c7b300e9
:100c2400ca0c070018002000390020000200370019
:100c3400080078007705070008017800890078002b
:100c4400b0c1b300e90c07000004e000f8ff320073
:100c54004f04be0000000600881f780040c7b300a0
:100c6400b10c07000084fb00220020008000eb0090
:100c740070c7b300dd0c07004800dd0000007400fd
:100c84000098a3000200320001c02f000080700011
:100c94004f04780000000600881f780050c7b30096
:100ca400a10c07000084fb002200200082007800d1
:100cb40070c7b300cd0c07004800dd0000007400cd
:100cc4000098a3000200320001c02f0000807000d1
:100cd4004f04780000000600881f780060c7b30046
:100ce400910c07000084fb0022002000410020003a
:100cf40070c7b300bd0c07004800dd00000074009d
:100d04000098a3000200320001c02f000080700090
:100d14004f04780000000600b0c5b300820c070041
:100d24000000060080407800b0c5b300870c0700bf
:100d340000000600a0c5b3007b0c070000000600fd
:100d440080407800a0c5b300800c070000000600b6
:100d5400e0c5b300740c0700000006008040780072
:100d6400e0c5b300790c070000000600d0c5b3004d
:100d74006d0c07000000060080407800d0c5b30069
:100d8400720c070000000600881f7800a0c7b3009b
:100d9400650c070000447800b0c7b300620c07007c
:100da40080407800f54f540004003a000040eb0006
:100db400e3cf500012003a000f003700d0c2b30056
:100dc400804f540005003a0010c0b3000104e00055
:100dd4000900320030c0b3000700370030c0b30050
:100de400fd4f540004003a0020c0b300e7cf500088
:100df4000100320030c0b3004f0478000000060048
:100e040030c0b300fcff3700881f7800e10f5000aa
:100e14000800320038c0b30051c1b30007003900e4
:100e240078c0b300d1c1b300e20f50000a003a0009
:100e3400020037000044eb00d1c2b300a0c7b300e6
:100e4400420c0700330020000001eb0088407800ca
:100e5400b0c7b3004e0c07004f0478000000060032
:100e64001200200031002000b0c7b3005f0c07005f
:100e74000080fb000000ea004f00de0000000600d6
:100e84008080fb008100ea00cf08de001300200010
:100e940032002000b0c7b3003d0c0700000006007c
:100ea4000200fa0080c7b300e0ff9f0022c0b30035
:100eb40011c0b3000f80e9002d0c07007ff89700e4
:100ec4004800dd006ff997008280fb00008070000d
:100ed4000080fa000000060021cbb300e0c7b30095
:100ee4001a0c07000000060000c6b3000e0c070031
:100ef400000006008040780000c6b300130c070011
:100f040000000600220020008000eb00f0c5b300c2
:100f1400360c07000040e800000006008040e900ad
:100f2400230020000001eb00f0c5b300180c0700fb
:100f34000000060010c6b300fb0b0700000006000b
:100f44008040780010c6b300000c070000000600c3
:100f54006200200021002000f0c5b300230c07002c
:100f6400000006006300200022002000804078007a
:100f7400f0c5b300060c0700000006005200200074
:100f84008000eb0040c6b300180c07000000060008
:100f9400530020000001eb008040780040c6b300fd
:100fa400fb0b070000000600120020006100200077
:100fb40030c6b3000d0c07000080fb000000ea00ff
:100fc4004f00de00000006008080fb008100ea0084
:100fd400cf08de00130020006200200030c6b300fa
:100fe400eb0b070000000600120020007100200037
:100ff40030c6b300fd0b07000080fb000000ea00d0
:101004004f00de00000006008080fb008100ea0043
:10101400cf08de00130020007200200030c6b300a9
:10102400db0b070000000600320020008000eb000c
:1010340030c6b300ed0b07000000060033002000ab
:101044000001eb008040780030c6b300d00b0700ed
:1010540000000600120020003100200010c5b3007b
:10106400e20b07000080fb000000ea004f00de00f6
:10107400000006008080fb008100ea00cf08de004b
:10108400130020003200200010c5b300c00b07007d
:1010940000000600320020008000eb0010c5b30001
:1010a400d20b07000080fb000000ea004f00de00c6
:1010b400000006008040eb000004e0000100320064
:1010c40071c0b300330020000001eb0010c5b30071
:1010d400af0b0700000006001200200031002000c2
:1010e40020c5b300c10b07000080fb000000ea002c
:1010f4004f00de00000006008080fb008100ea0053
:10110400cf08de00130020003200200020c5b30009
:101114009f0b070000000600320020008000eb0057
:1011240000c5b300b10b07000080fb000000ea001b
:101134004f00de00000006008040eb000004e000e9
:101144000100320071c0b300330020000001eb0045
:1011540000c5b3008e0b070000000600320020001b
:101164008000eb0020c5b300a00b07000080fb004b
:101174000000ea004f00de00000006008040eb00a3
:101184000004e00006003200130020000001eb0020
:101194008340780020c6b3007d0b070071c0b30004
:1011a400330020000001eb0020c5b300780b0700da
:1011b40000000600120020005100200000c5b3000a
:1011c4008a0b07000080fb000000ea004f00de00ed
:1011d400000006008080fb008100ea00cf08de00ea
:1011e400130020005200200000c5b300680b070064
:1011f40000000600120020004100200000c5b300da
:101204007a0b07000080fb000000ea004f00de00bc
:10121400000006008080fb008100ea00cf08de00a9
:10122400130020004200200000c5b300580b070043
:1012340000000600120020005100200010c5b30079
:101244006a0b07000080fb000000ea004f00de008c
:10125400000006008080fb008100ea00cf08de0069
:10126400130020005200200010c5b300480b0700f3
:1012740000000600120020004100200010c5b30049
:101284005a0b07000080fb000000ea004f00de005c
:10129400000006008080fb008100ea00cf08de0029
:1012a400130020004200200010c5b300380b0700d3
:1012b40000000600120020006100200070c4b3008a
:1012c4004a0b07000080fb000000ea004f00de002c
:1012d400000006008080fb008100ea00cf08de00e9
:1012e400130020006200200070c4b300280b070024
:1012f40000000600120020007100200070c4b3003a
:101304003a0b07000080fb000000ea004f00de00fb
:10131400000006008080fb008100ea00cf08de00a8
:10132400130020007200200070c4b300180b0700e3
:10133400000006000200fa0020c2b300e0ff9f0094
:1013440022c0b30011c0b3000f80e900080b0700ee
:101354007ff897004800dd006ff997008280fb005a
:10136400008070000080fa000000060001cbb3008a
:10137400e0c7b300f50a07000000060011cbb30074
:10138400e0c7b300f10a07000000060012002000c5
:101394004100200070c4b300140b07000080fb0060
:1013a4000000ea004f00de00000006008080fb0021
:1013b4008100ea00cf08de00130020004200200074
:1013c40070c4b300f20a0700000006000100e00048
:1013d4000500320042c2b30002487800014178009f
:1013e40011c0b300e20a070000000600c0c1b30048
:1013f400cd0a070000000600d0c1b300ca0a0700e6
:1014040000000600e0c1b300c70a070000000600a0
:10141400f0c1b300c40a0700000006001200200057
:1014240031002000d0c1b300f00a07000080fb00a7
:101434000000ea004f00de00000006001200200059
:1014440051002000c0c1b300e80a07000080fb007f
:101454000000ea004f00de00000006001200200039
:1014640041002000c0c1b300e00a07000080fb0077
:101474000000ea004f00de00000006001200200019
:1014840021002000d0c1b300d80a07000080fb006f
:101494000000ea004f00de0000000600f0c1b300c7
:1014a400a10a070069006000690068000000e90003
:1014b4004f00de0000000600f0c1b3009a0a0700e6
:1014c400690060000000a2000000e9004f00de0097
:1014d40000000600f0c1b300930a07006a00600030
:1014e4006a0068000000e9004f00de00000006000a
:1014f400f0c1b3008c0a07006a0060000010a2006b
:101504000000e9004f00de0000000600f0c1b30057
:10151400850a07006c0060006c0068000000e900a8
:101524004f00de0000000600f0c1b3007e0a070091
:101534006c0060000020a2000000e9004f00de0003
:1015440000000600120020008000eb00c0c1b300c0
:10155400a60a07000080fb000000ea004f00de003e
:10156400000006001200200021002000c0c1b300ca
:101574009e0a07000080fb000000ea004f00de0026
:1015840000000600e0c1b300670a070069006000bc
:10159400690068000000e9004f00de00000006005a
:1015a400e0c1b300600a0700690060000000a20007
:1015b4000000e9004f00de0000000600e0c1b300b7
:1015c400590a07006a0060006a0068000000e90028
:1015d4004f00de0000000600e0c1b300520a07001d
:1015e4006a0060000010a2000000e9004f00de0065
:1015f40000000600e0c1b3004b0a07006c00600065
:101604006c0068000000e9004f00de0000000600e6
:10161400e0c1b300440a07006c0060000020a2008f
:101624000000e9004f00de0000000600e0c1b30046
:101634003d0a0700804078000000eb000104e00050
:1016440002003d004408de00610060000000060066
:10165400e0c1b300340a0700804078000000eb00ca
:101664000104e000020035004408de00610060006f
:1016740000000600e0c1b3002b0a07008040780098
:101684000000eb000104e00002003d004508de001c
:101694006100600000000600e0c1b300220a0700f8
:1016a400804078000000eb000104e00002003500f7
:1016b4004508de006100600000000600e0c1b300e0
:1016c400190a0700804078000000eb000104e000e4
:1016d40002003d004608de006100600000000600d4
:1016e400e0c1b300100a0700804078000000eb005e
:1016f4000104e000020035004608de0061006000dd
:10170400000006001200200071002000d0c1b300c8
:10171400360a07000080fb000000ea004f00de00ec
:10172400000006001200200051002000d0c1b300c8
:101734002e0a07000080fb000000ea004f00de00d4
:10174400000006001200200041002000d0c1b300b8
:10175400260a07000080fb000000ea004f00de00bc
:1017640000000600120020008200780030c5b3009b
:101774001e0a07000080fb000000e9004f00de00a5
:10178400000006008080fb008100e900cf08de0035
:10179400130020000301780030c5b300fc090700e2
:1017a40000000600120020002100200030c5b30014
:1017b4000e0a07000080fb000000ea004f00de0074
:1017c400000006008080fb008100ea00cf08de00f4
:1017d400130020002200200030c5b300ec090700ec
:1017e40000000600420020008000eb0040c5b3006a
:1017f400fe09070000000600430020000001eb0082
:101804008040780040c5b300e109070000000600ed
:10181400120020003100200030c5b300f309070096
:101824000080fb000000ea004f00de00000006001c
:101834008080fb008100ea00cf08de001300200056
:101844003200200030c5b300d109070000000600b3
:101854000c00fa00889fbe008a9fbe008c9fbe00c9
:101864008005780001067800820678000304780079
:101874008404780005057800c2c0b30082ef9f009d
:1018840011c0b30078805700b90907009fe897009a
:10189400c808dd000fe997000280fb00008c70008f
:1018a400bfe89700c808dd002fe897000080fb0020
:1018b400808c7000dfe89700c808dd004fe89700cf
:1018c4000080fb00008d7000ffe89700c808dd0071
:1018d4006fe897000080fb00808d70009ff09700f8
:1018e400c808dd000ff097000080fb00008e700038
:1018f400bff09700c808dd002ff097000080fb00c0
:10190400808e70004f06be004f05be004f04be001f
:101914000080fa0000000600f8874700889fbe0098
:101924008a9fbe008c9fbe008e1f780080067800c0
:101934000107780082bf9f000305780084057800c2
:10194400050678000604be0040c0b300c0df9f0057
:1019540042c1b30011c0b300c0fd2f000f0040000e
:1019640083090700dfd89700c808dd004fd9970026
:101974000280fb00008c7000ffd89700c808dd00cf
:101984006fd897000080fb00808c70001fe19700e7
:101994004811dd008fe097008180fb002fa897009d
:1019a400010871003fe197004811dd00afe09700a6
:1019b4008180fb001fa8970001087100dfe09700f9
:1019c400c808dd004fe097000080fb00008d700028
:1019d400ffe09700c808dd006fe097000080fb007f
:1019e400808d70009fe89700c808dd000fe897001d
:1019f4000080fb00008e7000bfe89700c808dd007f
:101a04002fe897000080fb00808e7000dfe89700cd
:101a1400c808dd004fe897000080fb00008f7000cd
:101a2400ffe89700c808dd006fe897000080fb001e
:101a34000fb99700008970004f0778004f06be0069
:101a44004f05be004f04be008f01b1000000060028
:101a54000c00fa00881f780000047800c2c0b300ac
:101a6400a2f79f0011c0b3006e8057004009070021
:101a74003ff097004800dd002ff197008280fb00c3
:101a840000807000604498004800de0070449800b4
:101a9400dff09700c808dd004ff097000080fb00de
:101aa40001007000004c98004800de00104c9800c3
:101ab400fff09700c808dd006ff097000080fb007e
:101ac40001007000204c98004800de00304c980063
:101ad4009ff89700c808dd000ff897000080fb000e
:101ae40001007000f10f2000014c60004800de008e
:101af40010449800bff89700c808dd002ff897003d
:101b04000080fb0001007000204498004800de00c3
:101b140030449800dff89700c808dd004ff89700bc
:101b24000080fb0001007000404498004800de0083
:101b3400504498004f0478000080fa00000006002a
:101b44001400fa00881f78000004780040c0b30035
:101b5400a0ef9f0042c1b30011c0b30076805700cc
:101b6400030907003fe897004800dd002fe99700cc
:101b74008280fb0000807000404c98004800de002a
:101b8400504c9800dfe89700c808dd004fe8970044
:101b94000080fb0001007000604c98004800de00eb
:101ba400704c9800ffe89700c808dd006fe89700c4
:101bb4000080fb0001007000005498004800de0023
:101bc400105498009ff09700c808dd000ff09700ac
:101bd4000080fb0001007000205498004800de00e3
:101be40030549800bff09700c808dd002ff097002c
:101bf4000080fb0001007000604498004800de0093
:101c040070449800dff09700c808dd004ff097009b
:101c14000080fb0001007000004c98004800de00ca
:101c2400104c9800fff09700c808dd006ff0970093
:101c34000080fb0001007000204c98004800de008a
:101c4400304c98009ff89700c808dd000ff8970003
:101c54000080fb0001007000f10f2000014c6000c7
:101c64004800de0010449800bff89700c808dd0063
:101c74002ff897000080fb000100700020449800ba
:101c84004800de0030449800dff89700c808dd0003
:101c94004ff897000080fb0001007000404498005a
:101ca4004800de00504498004f0478000080fa0099
:101cb400000006000600fa00889fbe008a1f780014
:101cc4000004be000205780020c1b300c0f79f00e5
:101cd40062c0b30011c0b3006c805700a4080700b1
:101ce400dff09700c808dd004ff197000280fb0089
:101cf400008c7000fff09700c808dd006ff09700bb
:101d04000080fb00808c70009ff89700c808dd00fd
:101d14000ff897000080fb00008d70004f057800dd
:101d24004f04be000080fa00000006000200fa0022
:101d340020c1b300e0ff9f0022c0b30011c0b30074
:101d44000f80e9008a0807007ff897004800dd004b
:101d54006ff997008280fb00008070000080fa0019
:101d6400000006008040780010c7b3007708070021
:101d7400eeff0700000006000200fa0040c1b300b5
:101d8400e0ff9f0022c0b30011c0b3000f80e90040
:101d9400770807007ff897004800dd006ff9970087
:101da4008280fb00008070000080fa0000000600c2
:101db4008040780020c7b30064080700eeff0700e6
:101dc400000006000200fa0060c1b300e0ff9f00bb
:101dd40022c0b30011c0b3000f80e90064080700fb
:101de4007ff897004800dd006ff997008280fb00c0
:101df400008070000080fa00000006008040780037
:101e040030c7b30051080700eeff070000000600ca
:101e14000200fa0000c2b300e0ff9f0022c0b3003a
:101e240011c0b3000f80e900510807007ff8970044
:101e34004800dd006ff997008280fb00008070008d
:101e44000080fa00000006000600fa00889fbe0029
:101e54008a1f78000004be0002057800c0c0b300e9
:101e6400c0f79f0062c0b30011c0b3006c8057007c
:101e74003f080700dff09700c808dd004ff1970026
:101e84000280fb00008c7000fff09700c808dd00a2
:101e94006ff097000080fb00808c70009ff8970023
:101ea400c808dd000ff897000080fb00008d70006b
:101eb4004f0578004f04be000080fa0000000600c1
:101ec4000200fa00c0c0b300e0ff9f0022c0b300cc
:101ed40011c0b3000f80e900250807007ff89700c0
:101ee4004800dd006ff997008280fb0000807000dd
:101ef4000080fa0000000600881f780000047800c3
:101f04008840780040c7b30010080700c8c0de004e
:101f1400230020000001eb0070c7b3001c08070079
:101f2400e7ff07004f047800000006000200fa00f3
:101f3400e0c0b300e0ff9f0022c0b30011c0b300b3
:101f44000f80e9000a0807007ff897004800dd00c9
:101f54006ff997008280fb00008070000080fa0017
:101f640000000600881f780000047800884078008c
:101f740050c7b300f5070700c8c0de0023002000e7
:101f84000301780070c7b30001080700e7ff0700ea
:101f94004f047800000006000200fa0000c1b300fc
:101fa400e0ff9f0022c0b30011c0b3000f80e9001e
:101fb400ef0707007ff897004800dd006ff99700ee
:101fc4008280fb00008070000080fa0000000600a0
:101fd400881f7800000478008840780060c7b30048
:101fe400da070700c8c0de002300200042002000fa
:101ff40070c7b300e6070700e7ff07004f04780047
:10200400000006000600fa00889fbe008a1f7800c0
:102014000004be000205780040c0b300c0f79f0072
:1020240062c0b30011c0b3006c805700d007070032
:10203400dff09700c808dd004ff197000280fb0035
:10204400008c7000fff09700c808dd006ff0970067
:102054000080fb00808c70009ff89700c808dd00aa
:102064000ff897000080fb00008d70004f0578008a
:102074004f04be000080fa00000006000200fa00cf
:1020840040c0b300e0ff9f0022c0b30011c0b30002
:102094000f80e900b60707007ff897004800dd00cd
:1020a4006ff997008280fb00008070000080fa00c6
:1020b400000006000200fa0060c0b300e0ff9f00c9
:1020c40022c0b30011c0b3000f80e900a8070700c5
:1020d4007ff897004800dd006ff997008280fb00cd
:1020e400008070000080fa00000006000200fa0080
:1020f40080c0b300e0ff9f0022c0b30011c0b30052
:102104000f80e9009a0707007ff897004800dd0078
:102114006ff997008280fb00008070000080fa0055
:10212400000006008007070000000600870707007c
:1021340000000600889fbe00130020000301780001
:1021440083407800a0c6b3009107070001cab3001a
:10215400e0c7b3007d0707001800200049002000f5
:1021640002003700900120002a00070008017800cf
:1021740089007800b0c1b3009c0707000004e000a8
:10218400f8ff32004f04be000000060021c1b30076
:10219400e0c7b3006d07070000000600889fbe007b
:1021a4000000e00006003200e10f5000060032009b
:1021b400d1c3b300e20f500014003a00030037000b
:1021c400f1c2b30001003700b1c3b30090c6b3003d
:1021d4005e07070031c0b300e0c7b3005b07070028
:1021e40018002000390020000200370008007800a1
:1021f400080007000801780089007800b0c1b30026
:102204007a0707000004e000f8ff32004f04be0024
:10221400000006008001eb000000e00009003a0025
:102224000c003700000000008100e800828f50009d
:10223400fcff3a008301e800830f500003003e00d6
:10224400040037000002eb00027d200084007800c7
:10225400f4ff3700000006006f406000e94f5000b3
:10226400020036007043b000010037000043b000a4
:10227400000006008040eb00f2c2b300824f500021
:102284001900360091c3b300814f500003003e0093
:1022940001cdb30081404000130037008040eb00c3
:1022a40002c4b300824f50000f00360061c4b30073
:1022b400814f500003003e0091ccb30081404000a8
:1022c400090037008040eb0002c6b300824f500083
:1022d4000500360066414100824f500002003e0076
:1022e40091cab3008140400001407800000006001c
:1022f400804078000000eb00f2c2b30082cf5000af
:1023040015003600100020006a41410082cf5000c1
:10231400110036000000eb006741410082cf5000fd
:102324000d003600100020006641410082cf5000ad
:10233400090036000000eb007a41410082cf5000d2
:1023440005003600100020006641410082cf500095
:10235400010036000000eb00000006000041780098
:10236400eec8bf0081c0b300c4c8b3008241680096
:102374000080fb000000d1000308a300010032002c
:10238400044068008140e900030032000281fb0040
:102394000201d100f5ff3700eee8b70000000600a7
:1023a400f1072000814178002203200003497800ce
:1023b40001e02f00008040001000ba000000060079
:1023c40082052400023b8800f207200002427800c4
:1023d400230320008449780002e02f00000141001b
:1023e4008001eb000309bb000500fc00520520003e
:1023f400323b8800a20a2000323b880061e7a80033
:10240400000000000000000003002800043b8000de
:1024140004816100fdff3a0042002400023b880071
:10242400f207200002427800230320008449780048
:1024340002e02f00000041000108bb000500fc0081
:1024440050052000303b8800a00a2000303b880063
:1024540061e7a8000000000000000000010028005f
:10246400023b800002806000fdff3a00000006008d
:10247400889fbe00698020000004eb0008007800fb
:10248400c7ff0700802c78000884e800fe0f540082
:10249400faff3a0008c8bf008080fb00c408dd00d2
:1024a4003146b3008141780042902000034978000e
:1024b4000004e00007003a00504080006f406000d4
:1024c40008e8b700e14f500002003e0000c0e800f9
:1024d40008e8b7004f04be0000000600889fbe0055
:1024e4004427ef0001022000123a800002806000bd
:1024f400fdff32002ca3ef00c422ef0000042000f3
:102504000016880010002000601688004100240096
:1025140041168800a668ef00a768ef00e868ef009e
:10252400e968ef004011880001802800011188004b
:10253400f03fb00010118800cc82a9008560a9008a
:102544009560a80032062000c2118800811188001d
:1025540090118800cc02a800ef68ef000801200069
:102564008808880084e0a9000621ef0008c8bf009d
:102574000080fb00c91220000980b9004006b000a9
:10258400214180000180b9006008880063060700cb
:10259400000128002008880000c4290010088800d1
:1025a4008460a900ea28ef00b1ff070088088800ca
:1025b40084e0a9000621ef0008c8bf000081fb00e9
:1025c4000991b9004206b000214180000191b9008f
:1025d40062088800e14f500001003a0018e9b70092
:1025e4000628ef004f04be0000000600618a2000a8
:1025f400914078000181fb006382200080717900a2
:102604008140e8000174a10001417800608a200043
:102614000248780000000600a6c8bf008080fb00c6
:10262400f3c3b3006282200003f178000040e800a5
:102634000074a100a6e8b70000000600889fbe0051
:10264400ee68ef00f88e2000f4044400584078004f
:1026540042ff0700890f5400fcff3a00e18e20007e
:102664009140780050902000014878004f04be004b
:1026740000000600889fbe008a9fbe008c9fbe009b
:102684002d0020001949e20001003200fd00200065
:102694006a8a20001a4578006c8020008005eb00cf
:1026a4005c0478004c40de00ebfe07008a80fb00ef
:1026b4006982200080f478000a45e8000a74a100c9
:1026c4004840de00e4fe07008a80fb0080f47800c6
:1026d4000a45e8000a74a1004440de00defe07005b
:1026e4008a80fb0080f478000a45e8000a74a1009f
:1026f40008407800d8fe07008a80fb0080f4780048
:102704000a45e8000a74a1008b05e8008b8f560087
:10271400e3ff3e008a407800608a20000148780088
:102724004f06be004f05be004f04be000000060069
:10273400804078000000eb000948e200030032000a
:102744000180fb000000ea004f00de0000000600ec
:10275400889fbe008a9fbe008c1f780010c0b30003
:10276400f3ff07000000e00016003200688a200032
:102774001844780079902000708644005945780008
:102784000a80fb004400de00b3fe07008880fb00e3
:102794006b82200080f578000844e8000874a100ea
:1027a4006f406500acfe07008880fb0080f5780070
:1027b4000844e8000874a1008c8f5400efff3a002d
:1027c40019003700688a200018447800f98e200028
:1027d40078864400594578000a80fb004400de00f6
:1027e4009dfe07008880fb006b82200080f5780046
:1027f4000844e8000874a1006f40650096fe0700d5
:102804008880fb0080f578000844e8000874a10083
:102814008c8f5400efff3a0088407800608a2000d3
:10282400014878000300370088407800608a20005f
:10283400014878004f0678004f05be004f04be00e3
:1028440000000600889fbe008a1f780010c0b300f5
:10285400b7ff07000000e00032003200638a200066
:10286400934178008090200072044000222f2800b9
:102874004700200026002000104278008382fb00dd
:10288400618220008484fb00c24cde00e2c47c0030
:1028940089f07a008341e8000374a1006342620076
:1028a4000722dd00904290008384fb000585fb0035
:1028b4004455de000a4272000482fb0062427a0040
:1028c40084f07c008341e8000374a100204290005e
:1028d400efc26200862add008484fb00c64cde0061
:1028e40089c272008384fb008582fb00e2c27a0005
:1028f40085f07c008341e8000374a1008382fb001f
:10290400f403b20062427a0084f07a008341e80062
:102914000374a10063004000880f5000d6ff3a0002
:1029240035003700638a200093417800008f20002f
:1029340078044000222f28004700200026002000b1
:10294400104278008382fb00618220008484fb00b3
:10295400c24cde00e2c47c0089f07a008341e800c6
:102964000374a100634262000722dd0090429000dc
:102974008384fb000585fb004455de000a42720097
:102984000482fb0062427a0084f07c008341e80008
:102994000374a10020429000efc26200862add0089
:1029a4008484fb00c64cde0089c472008382fb0071
:1029b4008984fb00e2c47c0089f07a008341e8004a
:1029c4000374a1008382fb00f403b20062427a0024
:1029d40084f07a008341e8000374a100630040009e
:1029e400880f5000d6ff3a0083407800608a2000a8
:1029f400014878000300370083407800608a200093
:102a0400014878004f0578004f04be00000006001e
:102a14000968b7000000060000c0ea000968b600b3
:102a240000000600889fbe008a1f780000447800da
:102a340050478000e30f50001001320004003e00b4
:102a4400e10f50009c003200c0003e0075013700c9
:102a5400e50f5000040032000f013900e60f50006a
:102a64009c013a00490037000840780020fe070026
:102a74000000e0009701320056c9bf008080fb00cf
:102a8400a291200008f178000040e80056e9b70060
:102a9400e54f50008f013a001ac9bf00f5fd070049
:102aa400004478001bc9bf00f2fd07000884fb0046
:102ab4004444dd000080fb00080470001cc9bf0012
:102ac400ecfd07004444dd000080fb0008047000b6
:102ad4001dc9bf00e7fd07004444dd000080fb0082
:102ae40008007000204088000a08e30025003a002e
:102af4001ec9bf0011c3b300814f500003003a0048
:102b040020c0b300c2ff07000500370001c3b300b3
:102b1400814f500002003a0020c0b300beff0700fe
:102b2400a6c8bf008080fb006882200012c2b300e8
:102b340002f478008044e8000974a10008c8bf00ca
:102b4400c5fd07008980fb0000f478008944e80093
:102b54000974a1000980fb0011c5b3000174780059
:102b64000940e8000074a1008080fb00e29120008d
:102b74001241780002f478000040e8000074a100db
:102b8400a6e8b7000428ef00520137000840780097
:102b9400d7fd07000000e0004500320056c9bf0021
:102ba4008080fb00a291200008f178000040e8003a
:102bb40056e9b700e54f500046013a001ac9bf0074
:102bc400acfd0700004478001bc9bf00a9fd070045
:102bd4000884fb004444dd000080fb00080470000e
:102be4001cc9bf00a3fd07004444dd000080fb00b6
:102bf400080470001dc9bf009efd07004444dd00a9
:102c04000080fb0008007000204088000a08e300f0
:102c140025003a001ec9bf0011c3b300814f500004
:102c240003003a0010c0b30079ff07000500370025
:102c340001c3b300814f500002003a0010c0b3003a
:102c440075ff0700a6c8bf008080fb0068822000d3
:102c540012c2b30002f478008044e8000974a100b1
:102c640008c8bf007cfd07008980fb0000f47800e1
:102c74008944e8000974a1000980fb00d1c4b300b1
:102c8400017478000940e8000074a1008080fb0012
:102c9400e29120001241780002f478000040e8003c
:102ca4000074a100a6e8b7000428ef00090137006a
:102cb400ea28ef0007013700084078008cfd070080
:102cc4000000e0001f00320056c9bf008080fb00f6
:102cd400a291200008f178000040e80056e9b7000e
:102ce400e44f5000fb003a001ac9bf0061fd070021
:102cf400004478001bc9bf005efd07000884fb0088
:102d04004444dd000080fb00080470001cc9bf00bf
:102d140058fd07004444dd000080fb0008047000f7
:102d24001dc9bf0053fd07004444dd000080fb00c3
:102d34000800700020408800c022a8006860a80035
:102d4400e4003700ea28ef00e2003700084078008a
:102d540067fd07000000e0004600320056c9bf00ce
:102d64008080fb00a291200008f178000040e80078
:102d740056e9b700e54f5000d6003a001ac9bf0023
:102d84003cfd0700004478001bc9bf0039fd070063
:102d94000884fb004444dd000080fb00080470004c
:102da4001cc9bf0033fd07004444dd000080fb0064
:102db400080470001dc9bf002efd07004444dd0057
:102dc4000080fb0008007000204088000a08e3002f
:102dd40025003a001ec9bf0026fd070008e8b70019
:102de400414080000000eb0075fd07000001200059
:102df4008008880084e0a9000621ef0008c8bf000d
:102e04000081fb00c11220000191b9004206b0000c
:102e1400214180000191b90062088800e14f50000f
:102e240001003a000628ef00618a200091407800f2
:102e34000181fb006882200013c2b300037479008f
:102e44008144e8000974a10003fd07008980fb00a8
:102e540000f478008944e8000974a10089407800ee
:102e6400608a2000014878000428ef00ea28ef0077
:102e740098003700ea28ef009600370008407800f1
:102e8400fcfc07000848e30001003a00f9fd0700d4
:102e9400ea28ef008f0037000840780014fd07008f
:102ea4000000e0005d00320069952000994478003c
:102eb40008407800effc07008980fb00a291200005
:102ec40000f178008944e8006295200009497800ff
:102ed40030c3b30080cf54007e003a001ac9bf004b
:102ee4000848e3004b003a00ee68ef00a891200088
:102ef40009032000888444001880fb004400dd009e
:102f04009840900000c0700014fd07000884e80099
:102f1400890f5400f8ff3a00e18e200091407800b8
:102f24008180fb00b2942000124178000281fb00f2
:102f34004411dd004cc9bf000080fb00020070009a
:102f4400808f500018003a00b891200049002000fa
:102f54009880fb00c408dd00184090000080fb004e
:102f640081007000c408dd00284090000080fb0050
:102f740081007000c408dd00384090000080fb0030
:102f84008100700021408800090078000cfd0700d2
:102f940037fd0700640444008984e800fc8f540072
:102fa400ebff3a000428ef00a6c8bf008080fb00b6
:102fb4006882200012c2b30002f478008044e80062
:102fc4000974a100ea8e20001a4578000a80fb00eb
:102fd4004400de00a0fc07008980fb0000f47800b8
:102fe4008944e8000974a1000a4078009afc0700ab
:102ff4008980fb0000f478008944e8000974a1008a
:1030040009417800618a200082487800ea28ef00ac
:1030140030003700ea28ef002e003700ea28ef00de
:103024002c0037001849e2002a003a0000c4b3001b
:10303400804f540004003a001000200050478800dc
:103044005669ef002300370030c2b300804f5400ac
:1030540004003a0020002000504788005669ef0021
:103064001c00370040c2b300804f540004003a00f3
:1030740050002000504788005669ef0015003700c3
:10308400b0c5b300804f540004003a006000200033
:10309400504788005669ef000e003700c0c2b300e5
:1030a400804f540005003a0030002000504788004b
:1030b40010c0b30019e9b70006003700b0c3b3006d
:1030c400804f540003003a0040002000504788001d
:1030d4005669ef004f0578004f04be00000006005b
:1030e40080007800008f20002704070000000600fd
:1030f40084e0ab000800320084e0a9000001200055
:1031040080088800ec08e20002003200cdfd0700d0
:103114000100370057fd07000000060010c0b3008f
:103124003ef607000cc8bf000efb07000dc8bf0029
:103134001ffb07000ec8bf0030fb07009040800053
:103144006dfb0700a040800086fb0700b0408000b4
:103154009ffb070000000600889fbe008a1f7800be
:10316400e9c8bf00e848e300fc0032000408e200bc
:10317400060032000428ef006860a900c10f200097
:10318400a1118800a1118800a11188008080fb0092
:10319400828a200062c478000040e800f043b20054
:1031a400e9e8b700f0c3b300804f54001b003a00b5
:1031b40020c0b3005efd07000000e00017003a00e5
:1031c400ea28ef000621ef000001280080088800ab
:1031d40084e0a900c00f2000a0118800a01188007d
:1031e400a0118800100020006047880050fd0700ef
:1031f4000000e000040032008080eb00809020009a
:10320400e5030700030037008080eb00008f2000f7
:10321400dd03070009fd070008003700d0c2b30032
:10322400804f540005003a0018c9bf000080fb001d
:103234000000e9004f00de0018e9b7001849e20079
:10324400c4003a00e0c3b300804f540017003a00b2
:1032540020418000e90f500014003e008000e80087
:1032640021418800000120008008880084e0a90032
:103274000621ef0082802000124178000281fb00c9
:10328400c01220000091b900400620000200400056
:103294000180b90060088800c00f2000a0118800d8
:1032a400a0118800a011880037003700c0c3b30004
:1032b400804f540017003a0020418000e60f500070
:1032c400140036008000e90021418800000120003c
:1032d4008008880084e0a9000621ef008280200095
:1032e400124178000281fb00c01220000091b90055
:1032f40040062000020040000180b90060088800f8
:10330400c00f2000a0118800a0118800a01188001f
:1033140026003700e0c2b300804f54001a003a0080
:10332400ea28ef0052fc07001969ef0000012000b1
:103334008008880084e0a9000621ef008180200035
:10334400914078008180fb00c01220000088b90001
:103354004006b000214180000180b9006008880067
:103364000621ef00000128008008880084e0a900fd
:10337400c00f2000a0118800a0118800a0118800af
:10338400ec28ef002900370000c2b300804f54003e
:1033940006003a00ea28ef0008c8bf00e14f5000d9
:1033a40002003a000628ef0034003700a0c2b30040
:1033b400804f54001d003a0020c0b300dcfc07001d
:1033c4000000e00019003200ea28ef0028fc0700a2
:1033d4001969ef00000120008008880084e0a9003a
:1033e4000621ef0008c8bf000080fb00c1122000c6
:1033f4000180b9004006b000214180000180b9007d
:10340400600888000621ef00000128008008880079
:1034140084e0a900c00f2000a0118800a01188003a
:10342400a0118800ec28ef004200370080c2b300ee
:10343400804f540011003a0010c0b300bcfc0700d8
:103444000000e0000300320010c0b30072fd07006a
:103454000200370010c0b3006dfd07003141800049
:10346400f0002000d6fb0700c00f2000a011880048
:10347400a0118800a01188003600370050c2b300a4
:10348400804f54002b003a00c90f2000a911880076
:10349400a9118800a911880010c0b3005ff50700c6
:1034a40010c0b300d0f50700200020003bfb07004c
:1034b400a00f200057fb0700baf507000ce8b7007f
:1034c400bbf507000de8b700bcf507000ee8b70030
:1034d400e1f5070090408800eff50700a040880060
:1034e400fdf50700b0408800614080002000200006
:1034f400b3fb07007140800030002000b0fb0700e0
:103504009140800050002000adfb0700a1408000e6
:1035140060002000aafb0700b1408000700020007a
:10352400a7fb0700a9118800a9118800a911880028
:1035340008003700d0c3b300804f540005003a00a0
:10354400f6fe0700c00f2000a0118800a01188001b
:10355400a01188000840780032fd0700a7c8bf000a
:10356400a648e3000d00320061168000cc82a8005a
:103574002322ab000e003a008080fb006282200010
:10358400e2c078008180fb00211188000040e8003f
:103594000074a100a7e8b70005003700cc82ab0097
:1035a400030032002302ab0001003200cc82a900e8
:1035b400214080000100e0002b003200c222ab0059
:1035c40029003a0051408800200020007cfb0700bd
:1035d4006a8a20001a4578000a80fb00688220006d
:1035e40011c2b300017478000a45e8000a74a1000e
:1035f400294080004c48de0017fb07008a80fb004e
:1036040000f478000a45e8000a74a1004848de0086
:1036140011fb07008a80fb0000f478000a45e800eb
:103624000a74a1004448de000bfb07008a80fb00fb
:1036340000f478000a45e8000a74a1000940780003
:1036440005fb07008a80fb0000f478000a45e800c7
:103654000a74a1008a407800608a2000014878003a
:103664000428ef006860a900101180006600600063
:1036740002003200900f20002222b6004f0578008d
:103684004f04be0000000600cd02a800cd22a80011
:10369400cf02a800cf22a800c902a900c922a9000c
:1036a40000000600000021003010880007e2a90095
:1036b40050022000201088000722a9008620a900bb
:1036c40007e2a8000000060010002000204b88003c
:1036d40000000600889fbe008a9fbe00cd02a8009d
:1036e400cd22a8000014200001002000870207005a
:1036f40010002000cb02ab001d003200cb22ab0037
:103704001e0032000b003700511680000180650056
:1037140008003a00cd02a9000800be007b020700a1
:10372400cd02a8000800be00780207000a05e900df
:10373400f5ff3a000130200050168000008160003f
:1037440020002000810f510009003a00cd22a90079
:1037540000142000010020006c020700cd22a80004
:103764000014200001002000680207000000eb00a4
:103774004f05be004f04be0000000600cd02a900a4
:10378400001420000100200060020700cd02a80000
:1037940000142000010020005c0207009a002000b1
:1037a4000b2020000814200009002000d6ff370059
:1037b4000662a90008e2a9000942a9000000060067
:1037c400e14f500002003a0006a2a80001003700b1
:1037d40006a2a9000662a8000000eb0011f4210073
:1037e400030037000000e800810f50001000320091
:1037f4000822ab00fbff32000682a8000000eb00a9
:10380400913e2000030037000000e800810f5000c3
:10381400090032000682ab00fbff3a0008c2ab008d
:103824000100320008c2a900001080000300370024
:1038340010002800010037002000280000000600c6
:1038440007e2a900a3ff0700800078000080eb00d6
:103854000100e00002003c0007e2a8000000eb00c9
:10386400000006000622a800000000002000280036
:103874000942ab000b003a000000eb00913e20002f
:10388400030037000000e800810f500004003200fc
:103894000622ab00fbff3a000000eb0001003700fa
:1038a4001000280000000600804078001000280066
:1038b4000802ab0016003a008180fb00111088005a
:1038c4000000eb000200240013f421000300370081
:1038d4000000e800830f50000c0032004410800008
:1038e40084006100faff3a000942ab000300320091
:1038f4000942a90030002800050037000000280014
:103904000802b6004f00de00010037002000280046
:10391400000006000602a800000000000942ab00f7
:10392400040032000602a9000942a9002000280070
:10393400140037000000eb00913e200008e2ab00c9
:10394400070032000602a90008e2a900300028009e
:103954000c0037000000e800810f5000080032001e
:103964000602ab00fbff3a000000eb000942ab008b
:10397400040032000942a900200028000100370099
:1039840010002800000006000642a8000000000005
:10399400200028000942ab000b003a000000eb00b5
:1039a400913e2000030037000000e800810f500022
:1039b400040032000642ab00fbff3a000000eb00bb
:1039c400010037001000280000000600889fbe0098
:1039d4008a9fbe008c1f78000044780081447800e0
:1039e4000205be00100028006409ab0046003a003e
:1039f400c8ff07000000e000030032006409a800cb
:103a0400100028004000370008404400a6ff0700cb
:103a14000000e00004003200dbff07006409a80096
:103a24001000280038003700094078009eff070086
:103a34000000e00004003200d3ff07006409a8007e
:103a4400100028003000370086ff07000000e00067
:103a540004003200ccff07006409a800100028000d
:103a640029003700084044000004a0008eff07002e
:103a74000000e00003003a000a00e00005003c00fa
:103a84001a003700c0ff07006409a80010002800ce
:103a94001d0037008b0478000004eb008a05e90060
:103aa4000046eb00888f550003003a0010c0b300b5
:103ab40043ff0700020037000c40780040ff070076
:103ac4000000e00005003500805c78000804e80090
:103ad400880f5500f3ff3c0004003700aaff0700dd
:103ae4006409a8001000280007003700a6ff07009b
:103af400800078000000eb000100e00002003200ca
:103b04006409a800100028004f0678004f05be0085
:103b14004f04be0000000600881f780000447800af
:103b24006409ab000700320021ff070044ff0700cf
:103b340080007800200028000100e0000e003a0018
:103b44006409a90073ff07000000e00008003a00c0
:103b54000840440054ff0700000478008aff07006f
:103b64000000e00002003a000800e0000200320019
:103b74006409a800100028004f0478000000060023
:103b8400889fbe008a9fbe000044780001457800eb
:103b940082047800830578006409ab0026003a00ab
:103ba4005cff07000000e000020032006409a80086
:103bb40021003700084044003bff07000000e000fc
:103bc4000300320070ff07006409a8001a003700e0
:103bd4000a40780034ff07000000e00003003a00c8
:103be4000900e00004003c000f00370066ff0700f6
:103bf4006409a800100037000b0578000004eb00ee
:103c04003a40780028ff07000000e000030032007b
:103c14005dff07006409a800070037000804e800f6
:103c2400888f5400f6ff3c0057ff07000000e000b7
:103c3400010032006409a8004f05be004f04be0015
:103c4400000006008421ef0030012000100c8800e1
:103c5400000c8800e0002000200c88007800400060
:103c6400700888009500a90013e1a8000000060070
:103c740000c4b300ac0007000064a2000080fb0095
:103c84000000e9004f00de000000060011c1b3008f
:103c940010c0b300ad00070091c1b30020c0b30051
:103ca400aa00070071c0b300a0c0b300a7000700ba
:103cb40041c0b300c0c0b300a400070021c0b300da
:103cc40020c1b300a100070061c0b30020c1b3004c
:103cd4009e00070041c2b30040c1b3009b0007002f
:103ce40081c3b30030c1b3009800070021c0b30002
:103cf40010c2b3009500070021c0b30020c2b30076
:103d04009200070021c0b30030c2b3008f00070047
:103d140081c0b30070c2b3008c00070001c3b300bc
:103d2400f0c2b3008900070011c0b3000040eb00eb
:103d34008600070000000600889fbe00800478000b
:103d440001047800709520006a0140008040eb0077
:103d540001687800820f5000fdff3a0000c5b300ef
:103d640058e9b70072c0b30011c0b30080952000b9
:103d74007f0007006340b900808444000900780094
:103d84008195200091407800015878009195200099
:103d940091407800014878005ac9bf00a0449800b7
:103da400b195200091407800e15c98005cc9bf00a7
:103db400f05c9800d19520009140780081649800cf
:103dc4004f04be0000000600cde2a800b01320009e
:103dd400101288000000280000128800000006006d
:103de400cde2a900e18f4100040032000002eb00a3
:103df4000100e0000e003a00150037000100e00069
:103e04001e0032008001eb003082fb004412880067
:103e14004002ab00feff32004412800004597800d7
:103e24008301e800818f5100f7ff39001300370048
:103e3400b082fb00451288004002ab00feff320056
:103e4400451280000402e800810f5200f8ff390097
:103e54000300e00009003200830141008000eb0010
:103e6400411288004002ab00feff32004012800085
:103e740000597800830f5100f9ff3a00cde2a80001
:103e84000000eb0000000600cde2a9000080fb006a
:103e94000070a000401288004002ab00feff320018
:103ea400401280004822ef004002ab00feff3200c7
:103eb40040128000cde2a80000000600cde2a90077
:103ec400f007b200401288004002ab00feff32004f
:103ed400401280008180fb00411288004002ab0048
:103ee400feff320040128000cde2a8000000060070
:103ef4000200fa00904078000174a000e1ff9f00e6
:103f04008281fb0000017800110020000f80e9008d
:103f1400b3ff07000080fa0000000600eafd070076
:103f2400d9fd0700000006000200fa008f81e900b5
:103f3400120020008040780000c4b300a3fe0700f4
:103f44006ff897000080fa00000006000200fa00f3
:103f5400e1ff9f008f81e90012002000804078007b
:103f640000c4b30006ff07000080fa00000006004a
:103f74000281fb00f1c3b30090c07000800178009f
:103f840000c4b30091fe07000080fb00000006009f
:103f9400889fbe008a9fbe008044780081457800d7
:103fa400020478000305780009407800deff07006a
:103fb400110020000a0ddd000a05e9000855dd00a6
:103fc4008b85fb00085cdd008ac0ea00814060004c
:103fd400084565008ac0700009407800dbff0700cf
:103fe4004f05be004f04be0000000600889fbe00bf
:103ff4000104780082047800cbff07000080fb00f6
:104004000884de00100020008904dd008944e900f2
:10401400094064004f04be0000000600881f7800b9
:104024002ef90700c00f2000a0118800a0118800fd
:10403400a01188005100070008c8bf00e14f5000dc
:104044000b003a0006003700000000000000e90001
:10405400fdff3a008100e90003003a000400370044
:10406400a1002000821a260002007800f6ff370023
:104074004300070042012000e3ff2f00c10f20008e
:104084000000e0000c0032000f00370000000000c8
:1040940000000000000000000000e900e10f400003
:1040a400faff3a00a1118800a1118800a11188002b
:1040b4000201e9000200320003007800f3ff370038
:1040c400cc02a900ffff370028c0b30022fc070080
:1040d40007fc070008c8bf00e14f5000fbff3a008f
:1040e4000840780092f907000000e000f7ff3a006a
:1040f4000608e200f5ff32008460ab00f3ff3200f3
:0c4104008460a90044f90700f0ff3700b8
:020000040000fa
:10411000f03fb1000180b10006003500ee03090058
:1041200000000000403fb1000180b100fbff3d00f6
:104130001000b000203fb0000200350000800900f0
:08414000000000000000060071
:020000040000fa
:10414800000800005801000000000000620900009b
:1041580002000000020000000100000058090000f1
:104168000a000000000000006409000002000000ce
:0841780000000000000000003f
:020000040000fa
:1041800000000600100020000000060001000900e9
:104190000058eb002000b1000000060000000600ff
:020000040000fa
:0200000400fffb
:10fc0000020000000f0300000000000000000000e0
:10fc100000000000000000000040000000000000a4
:10fc20000000000000000000004000000000000094
:0cfc3000000000000000000008000000c0
:020000040000fa
:0200000401f009
:04000000ffff0000fe
:020000040000fa
:0200000401f009
:04000800ffff0000f6
:020000040000fa
:0200000401f009
:04000c00810000006f
:020000040000fa
:0200000401f009
:040010001b000000d1
:020000040000fa
:0200000401f009
:040014005f00000089
:020000040000fa
:0200000401f009
:04001800780000006c
:020000040000fa
:0200000401f009
:04001c00c20000001e
:020000040000fa
:0200000401f009
:040020001f000000bd
:00000001FF
